{
  "address": "0x4a9638EA2B3d0680Db5592cb1c41827553EDa040",
  "abi": [
    {
      "inputs": [],
      "stateMutability": "nonpayable",
      "type": "constructor"
    },
    {
      "anonymous": false,
      "inputs": [
        {
          "indexed": false,
          "internalType": "address",
          "name": "previousAdmin",
          "type": "address"
        },
        {
          "indexed": false,
          "internalType": "address",
          "name": "newAdmin",
          "type": "address"
        }
      ],
      "name": "AdminChanged",
      "type": "event"
    },
    {
      "anonymous": false,
      "inputs": [
        {
          "indexed": true,
          "internalType": "address",
          "name": "beacon",
          "type": "address"
        }
      ],
      "name": "BeaconUpgraded",
      "type": "event"
    },
    {
      "anonymous": false,
      "inputs": [
        {
          "indexed": false,
          "internalType": "uint8",
          "name": "version",
          "type": "uint8"
        }
      ],
      "name": "Initialized",
      "type": "event"
    },
    {
      "anonymous": false,
      "inputs": [
        {
          "indexed": true,
          "internalType": "address",
          "name": "previousOwner",
          "type": "address"
        },
        {
          "indexed": true,
          "internalType": "address",
          "name": "newOwner",
          "type": "address"
        }
      ],
      "name": "OwnershipTransferred",
      "type": "event"
    },
    {
      "anonymous": false,
      "inputs": [
        {
          "indexed": true,
          "internalType": "uint256",
          "name": "rarementId",
          "type": "uint256"
        },
        {
          "indexed": true,
          "internalType": "uint256",
          "name": "artistId",
          "type": "uint256"
        },
        {
          "components": [
            {
              "internalType": "uint128",
              "name": "artistId",
              "type": "uint128"
            },
            {
              "internalType": "string",
              "name": "name",
              "type": "string"
            },
            {
              "internalType": "string",
              "name": "symbol",
              "type": "string"
            },
            {
              "internalType": "string",
              "name": "baseURI",
              "type": "string"
            },
            {
              "internalType": "address payable",
              "name": "fundingRecipient",
              "type": "address"
            },
            {
              "internalType": "uint16",
              "name": "royaltyBPS",
              "type": "uint16"
            },
            {
              "internalType": "uint96",
              "name": "presalePrice",
              "type": "uint96"
            },
            {
              "internalType": "uint32",
              "name": "presaleStartTime",
              "type": "uint32"
            },
            {
              "internalType": "uint96",
              "name": "price",
              "type": "uint96"
            },
            {
              "internalType": "uint32",
              "name": "startTime",
              "type": "uint32"
            },
            {
              "internalType": "uint32",
              "name": "endTime",
              "type": "uint32"
            },
            {
              "internalType": "uint32",
              "name": "maxSupply",
              "type": "uint32"
            },
            {
              "internalType": "uint32",
              "name": "cutoffSupply",
              "type": "uint32"
            },
            {
              "internalType": "uint32",
              "name": "maxMintablePerAccount",
              "type": "uint32"
            },
            {
              "internalType": "uint8",
              "name": "flags",
              "type": "uint8"
            }
          ],
          "indexed": false,
          "internalType": "struct RarementInfo",
          "name": "info",
          "type": "tuple"
        },
        {
          "indexed": true,
          "internalType": "address",
          "name": "rarementAddress",
          "type": "address"
        }
      ],
      "name": "RarementCreated",
      "type": "event"
    },
    {
      "anonymous": false,
      "inputs": [
        {
          "indexed": true,
          "internalType": "address",
          "name": "implementation",
          "type": "address"
        }
      ],
      "name": "Upgraded",
      "type": "event"
    },
    {
      "inputs": [],
      "name": "beaconAddress",
      "outputs": [
        {
          "internalType": "address",
          "name": "",
          "type": "address"
        }
      ],
      "stateMutability": "view",
      "type": "function"
    },
    {
      "inputs": [
        {
          "components": [
            {
              "internalType": "uint128",
              "name": "artistId",
              "type": "uint128"
            },
            {
              "internalType": "string",
              "name": "name",
              "type": "string"
            },
            {
              "internalType": "string",
              "name": "symbol",
              "type": "string"
            },
            {
              "internalType": "string",
              "name": "baseURI",
              "type": "string"
            },
            {
              "internalType": "address payable",
              "name": "fundingRecipient",
              "type": "address"
            },
            {
              "internalType": "uint16",
              "name": "royaltyBPS",
              "type": "uint16"
            },
            {
              "internalType": "uint96",
              "name": "presalePrice",
              "type": "uint96"
            },
            {
              "internalType": "uint32",
              "name": "presaleStartTime",
              "type": "uint32"
            },
            {
              "internalType": "uint96",
              "name": "price",
              "type": "uint96"
            },
            {
              "internalType": "uint32",
              "name": "startTime",
              "type": "uint32"
            },
            {
              "internalType": "uint32",
              "name": "endTime",
              "type": "uint32"
            },
            {
              "internalType": "uint32",
              "name": "maxSupply",
              "type": "uint32"
            },
            {
              "internalType": "uint32",
              "name": "cutoffSupply",
              "type": "uint32"
            },
            {
              "internalType": "uint32",
              "name": "maxMintablePerAccount",
              "type": "uint32"
            },
            {
              "internalType": "uint8",
              "name": "flags",
              "type": "uint8"
            }
          ],
          "internalType": "struct RarementInfo",
          "name": "info",
          "type": "tuple"
        }
      ],
      "name": "createRarement",
      "outputs": [
        {
          "internalType": "address",
          "name": "",
          "type": "address"
        }
      ],
      "stateMutability": "nonpayable",
      "type": "function"
    },
    {
      "inputs": [],
      "name": "getCurrentCount",
      "outputs": [
        {
          "internalType": "uint256",
          "name": "",
          "type": "uint256"
        }
      ],
      "stateMutability": "view",
      "type": "function"
    },
    {
      "inputs": [],
      "name": "initialize",
      "outputs": [],
      "stateMutability": "nonpayable",
      "type": "function"
    },
    {
      "inputs": [],
      "name": "owner",
      "outputs": [
        {
          "internalType": "address",
          "name": "",
          "type": "address"
        }
      ],
      "stateMutability": "view",
      "type": "function"
    },
    {
      "inputs": [],
      "name": "proxiableUUID",
      "outputs": [
        {
          "internalType": "bytes32",
          "name": "",
          "type": "bytes32"
        }
      ],
      "stateMutability": "view",
      "type": "function"
    },
    {
      "inputs": [
        {
          "internalType": "uint256",
          "name": "",
          "type": "uint256"
        }
      ],
      "name": "rarementContracts",
      "outputs": [
        {
          "internalType": "address",
          "name": "",
          "type": "address"
        }
      ],
      "stateMutability": "view",
      "type": "function"
    },
    {
      "inputs": [],
      "name": "renounceOwnership",
      "outputs": [],
      "stateMutability": "nonpayable",
      "type": "function"
    },
    {
      "inputs": [
        {
          "internalType": "address",
          "name": "newOwner",
          "type": "address"
        }
      ],
      "name": "transferOwnership",
      "outputs": [],
      "stateMutability": "nonpayable",
      "type": "function"
    },
    {
      "inputs": [
        {
          "internalType": "address",
          "name": "newImplementation",
          "type": "address"
        }
      ],
      "name": "upgradeTo",
      "outputs": [],
      "stateMutability": "nonpayable",
      "type": "function"
    },
    {
      "inputs": [
        {
          "internalType": "address",
          "name": "newImplementation",
          "type": "address"
        },
        {
          "internalType": "bytes",
          "name": "data",
          "type": "bytes"
        }
      ],
      "name": "upgradeToAndCall",
      "outputs": [],
      "stateMutability": "payable",
      "type": "function"
    }
  ],
  "transactionHash": "0x604e2ae6e0e82a657283d9bb666e624752ac05bc4e344f9e73e78ca2eb27ff02",
  "args": [],
  "numDeployments": 1,
  "solcInputHash": "b62eca8016b1ae252e5405aeb6db7734",
  "bytecode": "0x60a06040523060805234801561001457600080fd5b5061001d610022565b6100e2565b600054610100900460ff161561008e5760405162461bcd60e51b815260206004820152602760248201527f496e697469616c697a61626c653a20636f6e747261637420697320696e697469604482015266616c697a696e6760c81b606482015260840160405180910390fd5b60005460ff90811610156100e0576000805460ff191660ff9081179091556040519081527f7f26b83ff96e1f2b6a682f133852f6798a09c465da95921460cefb38474024989060200160405180910390a15b565b608051615b406101196000396000818161023401528181610280015281816103290152818161036c01526104080152615b406000f3fe608060405260043610620000a95760003560e01c80637e2ec6d0116200006c5780637e2ec6d0146200016d5780638129fc1c146200018f5780638da5cb5b14620001a7578063b14addf614620001c7578063dd51babf14620001ec578063f2fde38b146200020457600080fd5b80633659cfe614620000ae5780634f1ef28614620000d557806352d1902d14620000ec578063636f84571462000117578063715018a61462000155575b600080fd5b348015620000bb57600080fd5b50620000d3620000cd36600462000e71565b62000229565b005b620000d3620000e636600462000f51565b6200031e565b348015620000f957600080fd5b5062000104620003fb565b6040519081526020015b60405180910390f35b3480156200012457600080fd5b506200013c6200013636600462000fbc565b620004b1565b6040516001600160a01b0390911681526020016200010e565b3480156200016257600080fd5b50620000d3620004dc565b3480156200017a57600080fd5b5060ca546200013c906001600160a01b031681565b3480156200019c57600080fd5b50620000d3620004f4565b348015620001b457600080fd5b506097546001600160a01b03166200013c565b348015620001d457600080fd5b506200013c620001e636600462001070565b62000700565b348015620001f957600080fd5b50620001046200086c565b3480156200021157600080fd5b50620000d36200022336600462000e71565b6200087d565b306001600160a01b037f00000000000000000000000000000000000000000000000000000000000000001614156200027e5760405162461bcd60e51b815260040162000275906200122f565b60405180910390fd5b7f00000000000000000000000000000000000000000000000000000000000000006001600160a01b0316620002c960008051602062005ac4833981519152546001600160a01b031690565b6001600160a01b031614620002f25760405162461bcd60e51b815260040162000275906200127b565b620002fd81620008f9565b604080516000808252602082019092526200031b9183919062000903565b50565b306001600160a01b037f00000000000000000000000000000000000000000000000000000000000000001614156200036a5760405162461bcd60e51b815260040162000275906200122f565b7f00000000000000000000000000000000000000000000000000000000000000006001600160a01b0316620003b560008051602062005ac4833981519152546001600160a01b031690565b6001600160a01b031614620003de5760405162461bcd60e51b815260040162000275906200127b565b620003e982620008f9565b620003f78282600162000903565b5050565b6000306001600160a01b037f000000000000000000000000000000000000000000000000000000000000000016146200049d5760405162461bcd60e51b815260206004820152603860248201527f555550535570677261646561626c653a206d757374206e6f742062652063616c60448201527f6c6564207468726f7567682064656c656761746563616c6c0000000000000000606482015260840162000275565b5060008051602062005ac483398151915290565b60cb8181548110620004c257600080fd5b6000918252602090912001546001600160a01b0316905081565b620004e662000a90565b620004f2600062000aec565b565b600054610100900460ff1615808015620005155750600054600160ff909116105b80620005315750303b15801562000531575060005460ff166001145b620005965760405162461bcd60e51b815260206004820152602e60248201527f496e697469616c697a61626c653a20636f6e747261637420697320616c72656160448201526d191e481a5b9a5d1a585b1a5e995960921b606482015260840162000275565b6000805460ff191660011790558015620005ba576000805461ff0019166101001790555b620005c462000b3e565b620005ce62000b72565b6000604051620005de9062000e31565b604051809103906000f080158015620005fb573d6000803e3d6000fd5b506040516200060a9062000e3f565b6001600160a01b039091168152602001604051809103906000f08015801562000637573d6000803e3d6000fd5b5060405163f2fde38b60e01b81523360048201529091506001600160a01b0382169063f2fde38b90602401600060405180830381600087803b1580156200067d57600080fd5b505af115801562000692573d6000803e3d6000fd5b505060ca80546001600160a01b0319166001600160a01b039490941693909317909255505080156200031b576000805461ff0019169055604051600181527f7f26b83ff96e1f2b6a682f133852f6798a09c465da95921460cefb38474024989060200160405180910390a150565b60006200070c62000a90565b60006200071860c95490565b60ca546040519192506000916001600160a01b0390911690638139b4e960e01b906200074d9033908690899060240162001467565b60408051601f198184030181529181526020820180516001600160e01b03166001600160e01b03199094169390931790925290516200078c9062000e4d565b6200079992919062001490565b604051809103906000f080158015620007b6573d6000803e3d6000fd5b5060cb80546001810182556000919091527fa7ce836d032b2bf62b7e2097a8e0a6d8aeb35405ad15271e96d3b0188a1d06fb0180546001600160a01b0319166001600160a01b038316908117909155855160405192935090916001600160801b039091169084907f8e41b1883fdb366b6f74527a207393f4ac489b54d3f0ba73e640ebf3237d8b2a906200084c908990620014be565b60405180910390a46200086360c980546001019055565b9150505b919050565b60006200087860c95490565b905090565b6200088762000a90565b6001600160a01b038116620008ee5760405162461bcd60e51b815260206004820152602660248201527f4f776e61626c653a206e6577206f776e657220697320746865207a65726f206160448201526564647265737360d01b606482015260840162000275565b6200031b8162000aec565b6200031b62000a90565b7f4910fdfa16fed3260ed0e7147f7cc6da11a60208b5b9406d12a635614ffd91435460ff16156200093e57620009398362000b9c565b505050565b826001600160a01b03166352d1902d6040518163ffffffff1660e01b815260040160206040518083038186803b1580156200097857600080fd5b505afa925050508015620009ab575060408051601f3d908101601f19168201909252620009a891810190620014d3565b60015b62000a105760405162461bcd60e51b815260206004820152602e60248201527f45524331393637557067726164653a206e657720696d706c656d656e7461746960448201526d6f6e206973206e6f74205555505360901b606482015260840162000275565b60008051602062005ac4833981519152811462000a825760405162461bcd60e51b815260206004820152602960248201527f45524331393637557067726164653a20756e737570706f727465642070726f786044820152681a58589b195555525160ba1b606482015260840162000275565b506200093983838362000c3b565b6097546001600160a01b03163314620004f25760405162461bcd60e51b815260206004820181905260248201527f4f776e61626c653a2063616c6c6572206973206e6f7420746865206f776e6572604482015260640162000275565b609780546001600160a01b038381166001600160a01b0319831681179093556040519116919082907f8be0079c531659141344cd1fd0a4f28419497f9722a3daafe3b4186f6b6457e090600090a35050565b600054610100900460ff1662000b685760405162461bcd60e51b81526004016200027590620014ed565b620004f262000c6c565b600054610100900460ff16620004f25760405162461bcd60e51b81526004016200027590620014ed565b6001600160a01b0381163b62000c0b5760405162461bcd60e51b815260206004820152602d60248201527f455243313936373a206e657720696d706c656d656e746174696f6e206973206e60448201526c1bdd08184818dbdb9d1c9858dd609a1b606482015260840162000275565b60008051602062005ac483398151915280546001600160a01b0319166001600160a01b0392909216919091179055565b62000c468362000ca1565b60008251118062000c545750805b15620009395762000c66838362000ce3565b50505050565b600054610100900460ff1662000c965760405162461bcd60e51b81526004016200027590620014ed565b620004f23362000aec565b62000cac8162000b9c565b6040516001600160a01b038216907fbc7cd75a20ee27fd9adebab32041f755214dbc6bffa90cc0225b39da2e5c2d3b90600090a250565b60606001600160a01b0383163b62000d4d5760405162461bcd60e51b815260206004820152602660248201527f416464726573733a2064656c65676174652063616c6c20746f206e6f6e2d636f6044820152651b9d1c9858dd60d21b606482015260840162000275565b600080846001600160a01b03168460405162000d6a919062001538565b600060405180830381855af49150503d806000811462000da7576040519150601f19603f3d011682016040523d82523d6000602084013e62000dac565b606091505b509150915062000dd7828260405180606001604052806027815260200162005ae46027913962000de0565b95945050505050565b6060831562000df157508162000dfd565b62000dfd838362000e04565b9392505050565b81511562000e155781518083602001fd5b8060405162461bcd60e51b815260040162000275919062001556565b613739806200156c83390190565b6104e48062004ca583390190565b61093b806200518983390190565b6001600160a01b03811681146200031b57600080fd5b60006020828403121562000e8457600080fd5b813562000dfd8162000e5b565b634e487b7160e01b600052604160045260246000fd5b6040516101e0810167ffffffffffffffff8111828210171562000ece5762000ece62000e91565b60405290565b600067ffffffffffffffff8084111562000ef25762000ef262000e91565b604051601f8501601f19908116603f0116810190828211818310171562000f1d5762000f1d62000e91565b8160405280935085815286868601111562000f3757600080fd5b858560208301376000602087830101525050509392505050565b6000806040838503121562000f6557600080fd5b823562000f728162000e5b565b9150602083013567ffffffffffffffff81111562000f8f57600080fd5b8301601f8101851362000fa157600080fd5b62000fb28582356020840162000ed4565b9150509250929050565b60006020828403121562000fcf57600080fd5b5035919050565b80356001600160801b03811681146200086757600080fd5b600082601f8301126200100057600080fd5b62000dfd8383356020850162000ed4565b8035620008678162000e5b565b803561ffff811681146200086757600080fd5b80356001600160601b03811681146200086757600080fd5b803563ffffffff811681146200086757600080fd5b803560ff811681146200086757600080fd5b6000602082840312156200108357600080fd5b813567ffffffffffffffff808211156200109c57600080fd5b908301906101e08286031215620010b257600080fd5b620010bc62000ea7565b620010c78362000fd6565b8152602083013582811115620010dc57600080fd5b620010ea8782860162000fee565b6020830152506040830135828111156200110357600080fd5b620011118782860162000fee565b6040830152506060830135828111156200112a57600080fd5b620011388782860162000fee565b6060830152506200114c6080840162001011565b60808201526200115f60a084016200101e565b60a08201526200117260c0840162001031565b60c08201526200118560e0840162001049565b60e082015261010091506200119c82840162001031565b828201526101209150620011b282840162001049565b828201526101409150620011c882840162001049565b828201526101609150620011de82840162001049565b828201526101809150620011f482840162001049565b828201526101a091506200120a82840162001049565b828201526101c09150620012208284016200105e565b91810191909152949350505050565b6020808252602c908201527f46756e6374696f6e206d7573742062652063616c6c6564207468726f7567682060408201526b19195b1959d85d1958d85b1b60a21b606082015260800190565b6020808252602c908201527f46756e6374696f6e206d7573742062652063616c6c6564207468726f7567682060408201526b6163746976652070726f787960a01b606082015260800190565b60005b83811015620012e4578181015183820152602001620012ca565b8381111562000c665750506000910152565b6000815180845262001310816020860160208601620012c7565b601f01601f19169290920160200192915050565b80516001600160801b0316825260006101e060208301518160208601526200134f82860182620012f6565b915050604083015184820360408601526200136b8282620012f6565b91505060608301518482036060860152620013878282620012f6565b9150506080830151620013a560808601826001600160a01b03169052565b5060a0830151620013bc60a086018261ffff169052565b5060c0830151620013d860c08601826001600160601b03169052565b5060e0830151620013f160e086018263ffffffff169052565b50610100838101516001600160601b0316908501526101208084015163ffffffff908116918601919091526101408085015182169086015261016080850151821690860152610180808501518216908601526101a080850151909116908501526101c09283015160ff1692909301919091525090565b60018060a01b038416815282602082015260606040820152600062000dd7606083018462001324565b6001600160a01b0383168152604060208201819052600090620014b690830184620012f6565b949350505050565b60208152600062000dfd602083018462001324565b600060208284031215620014e657600080fd5b5051919050565b6020808252602b908201527f496e697469616c697a61626c653a20636f6e7472616374206973206e6f74206960408201526a6e697469616c697a696e6760a81b606082015260800190565b600082516200154c818460208701620012c7565b9190910192915050565b60208152600062000dfd6020830184620012f656fe60806040523480156200001157600080fd5b506200001c62000022565b620000e4565b600054610100900460ff16156200008f5760405162461bcd60e51b815260206004820152602760248201527f496e697469616c697a61626c653a20636f6e747261637420697320696e697469604482015266616c697a696e6760c81b606482015260840160405180910390fd5b60005460ff9081161015620000e2576000805460ff191660ff9081179091556040519081527f7f26b83ff96e1f2b6a682f133852f6798a09c465da95921460cefb38474024989060200160405180910390a15b565b61364580620000f46000396000f3fe6080604052600436106101f95760003560e01c80638139b4e91161010d578063b5f74525116100a0578063d5abeb011161006f578063d5abeb01146105a8578063e086e5ec146105cb578063e8723754146105d3578063e985e9c5146105f3578063f2fde38b1461063c57600080fd5b8063b5f7452514610526578063b602ae6614610548578063b88d4fde14610568578063c87b56dd1461058857600080fd5b806397248f48116100dc57806397248f48146104de578063a22cb465146104f3578063a340a9ad146104de578063a71bbebe1461051357600080fd5b80638139b4e9146104785780638d12b93e146104985780638da5cb5b146104ab57806395d89b41146104c957600080fd5b80632eb4a7ab116101905780636352211e1161015f5780636352211e146103e357806370a0823114610403578063715018a61461042357806372298b82146104385780637cb647591461045857600080fd5b80632eb4a7ab1461035857806331ffc23d1461037c57806342842e0e146103a357806355f804b3146103c357600080fd5b80630d52865d116101cc5780630d52865d146102af57806318160ddd146102cf57806323b872dd146102f95780632a55205a1461031957600080fd5b806301ffc9a7146101fe57806306fdde0314610233578063081812fc14610255578063095ea7b31461028d575b600080fd5b34801561020a57600080fd5b5061021e610219366004612759565b61065c565b60405190151581526020015b60405180910390f35b34801561023f57600080fd5b50610248610687565b60405161022a91906127ce565b34801561026157600080fd5b506102756102703660046127e1565b610719565b6040516001600160a01b03909116815260200161022a565b34801561029957600080fd5b506102ad6102a836600461280f565b610740565b005b3480156102bb57600080fd5b506102ad6102ca366004612892565b61085b565b3480156102db57600080fd5b506102e4610988565b60405163ffffffff909116815260200161022a565b34801561030557600080fd5b506102ad6103143660046128e9565b6109b2565b34801561032557600080fd5b5061033961033436600461292a565b6109e3565b604080516001600160a01b03909316835260208301919091520161022a565b34801561036457600080fd5b5061036e60d15481565b60405190815260200161022a565b34801561038857600080fd5b50610391600181565b60405160ff909116815260200161022a565b3480156103af57600080fd5b506102ad6103be3660046128e9565b610a4a565b3480156103cf57600080fd5b506102ad6103de3660046129d8565b610a65565b3480156103ef57600080fd5b506102756103fe3660046127e1565b610a84565b34801561040f57600080fd5b5061036e61041e366004612a21565b610ae4565b34801561042f57600080fd5b506102ad610b6a565b34801561044457600080fd5b506102ad610453366004612a3e565b610b7e565b34801561046457600080fd5b506102ad6104733660046127e1565b610ba2565b34801561048457600080fd5b506102ad610493366004612a70565b610c48565b6102ad6104a6366004612acf565b610e3e565b3480156104b757600080fd5b506097546001600160a01b0316610275565b3480156104d557600080fd5b50610248611073565b3480156104ea57600080fd5b50610391600281565b3480156104ff57600080fd5b506102ad61050e366004612b24565b611082565b6102ad610521366004612a3e565b61108d565b34801561053257600080fd5b5061053b6111c0565b60405161022a9190612b62565b34801561055457600080fd5b506102ad610563366004612a3e565b6114c6565b34801561057457600080fd5b506102ad610583366004612cde565b6114f4565b34801561059457600080fd5b506102486105a33660046127e1565b611526565b3480156105b457600080fd5b5060d054640100000000900463ffffffff166102e4565b6102ad61158d565b3480156105df57600080fd5b506102ad6105ee366004612a3e565b611655565b3480156105ff57600080fd5b5061021e61060e366004612d5e565b6001600160a01b039182166000908152606a6020908152604080832093909416825291909152205460ff1690565b34801561064857600080fd5b506102ad610657366004612a21565b611682565b600063152a902d60e11b6001600160e01b0319831614806106815750610681826116f8565b92915050565b60606065805461069690612d8c565b80601f01602080910402602001604051908101604052809291908181526020018280546106c290612d8c565b801561070f5780601f106106e45761010080835404028352916020019161070f565b820191906000526020600020905b8154815290600101906020018083116106f257829003601f168201915b5050505050905090565b600061072482611748565b506000908152606960205260409020546001600160a01b031690565b600061074b82610a84565b9050806001600160a01b0316836001600160a01b031614156107be5760405162461bcd60e51b815260206004820152602160248201527f4552433732313a20617070726f76616c20746f2063757272656e74206f776e656044820152603960f91b60648201526084015b60405180910390fd5b336001600160a01b03821614806107da57506107da813361060e565b61084c5760405162461bcd60e51b815260206004820152603d60248201527f4552433732313a20617070726f76652063616c6c6572206973206e6f7420746f60448201527f6b656e206f776e6572206f7220617070726f76656420666f7220616c6c00000060648201526084016107b5565b61085683836117a7565b505050565b610863611815565b816108a85760405162461bcd60e51b815260206004820152601560248201527404e6f206164647265737320746f2061697264726f7605c1b60448201526064016107b5565b60d35463ffffffff908116906108c090831684612ddd565b11156108de5760405162461bcd60e51b81526004016107b590612dfc565b8160005b81811461092a576109218585838181106108fe576108fe612e46565b90506020020160208101906109139190612a21565b60008563ffffffff1661186f565b506001016108e2565b505060ca5460c9546001600160801b0391821691167ff56c43aa7e27280be77b7537035c7721be59a6bbaf1ab9340c7ffc7f2b4617cc85858561096b610988565b60405161097b9493929190612e5c565b60405180910390a3505050565b60d35460d0546000916109ad9163ffffffff9182169164010000000090910416612ec2565b905090565b6109bc3382611b8a565b6109d85760405162461bcd60e51b81526004016107b590612ee7565b610856838383611c09565b60ce5460009081906001600160a01b0316610a0d57505060ce546001600160a01b03166000610a43565b60ce546001600160a01b0381169061271090610a3490600160a01b900461ffff1686612ddd565b610a3e9190612f4a565b915091505b9250929050565b610856838383604051806020016040528060008152506114f4565b610a6d611815565b8051610a809060cd9060208401906126aa565b5050565b6000818152606760205260408120546001600160a01b0316806106815760405162461bcd60e51b8152602060048201526018602482015277115490cdcc8c4e881a5b9d985b1a59081d1bdad95b88125160421b60448201526064016107b5565b60006001600160a01b038216610b4e5760405162461bcd60e51b815260206004820152602960248201527f4552433732313a2061646472657373207a65726f206973206e6f7420612076616044820152683634b21037bbb732b960b91b60648201526084016107b5565b506001600160a01b031660009081526068602052604090205490565b610b72611815565b610b7c6000611d7a565b565b610b86611815565b60d0805463ffffffff191663ffffffff92909216919091179055565b610baa611815565b80610bf75760405162461bcd60e51b815260206004820152601a60248201527f4d65726b6c6520726f6f74206861736820697320656d7074792e00000000000060448201526064016107b5565b60d181905560ca5460c9546040518381526001600160801b0392831692909116907fe11164edff6879bbb46b40e2d9dfd870601bac418e3d58dd7e31eb2d18c32f4c9060200160405180910390a350565b600054610100900460ff1615808015610c685750600054600160ff909116105b80610c825750303b158015610c82575060005460ff166001145b610ce55760405162461bcd60e51b815260206004820152602e60248201527f496e697469616c697a61626c653a20636f6e747261637420697320616c72656160448201526d191e481a5b9a5d1a585b1a5e995960921b60648201526084016107b5565b6000805460ff191660011790558015610d08576000805461ff0019166101001790555b610d94610d186020840184612f5e565b8080601f016020809104026020016040519081016040528093929190818152602001838380828437600092019190915250610d5a925050506040850185612f5e565b8080601f016020809104026020016040519081016040528093929190818152602001838380828437600092019190915250611dcc92505050565b610d9c611dfd565b60c980546001600160801b0319166001600160801b038516179055610dc961018083016101608401612a3e565b60d3805463ffffffff191663ffffffff929092169190911790558160ca610df0828261311b565b50508015610e38576000805461ff0019169055604051600181527f7f26b83ff96e1f2b6a682f133852f6798a09c465da95921460cefb38474024989060200160405180910390a15b50505050565b60d054600160801b9004600216610e975760405162461bcd60e51b815260206004820152601960248201527f50726573616c65206973206e6f7420617661696c61626c652e0000000000000060448201526064016107b5565b60cf5442600160601b90910463ffffffff1610610eef5760405162461bcd60e51b8152602060048201526016602482015275141c995cd85b19481a185cdb89dd081cdd185c9d195960521b60448201526064016107b5565b60cf5442600160e01b90910463ffffffff1611610f425760405162461bcd60e51b8152602060048201526011602482015270141c995cd85b19481a185cc8195b991959607a1b60448201526064016107b5565b6040516bffffffffffffffffffffffff193360601b166020820152600090603401604051602081830303815290604052805190602001209050610fbc8383808060200260200160405190810160405280939291908181526020018383602002808284376000920191909152505060d1549150849050611e2c565b610ff85760405162461bcd60e51b815260206004820152600d60248201526c34b73b30b634b210383937b7b360991b60448201526064016107b5565b60cf5460009061101490339087906001600160601b031661186f565b60ca5460c95491925033916001600160801b0391821691167f79c0c974208a173f722e6351898de1addce6e8f979cd43900c4776b9463ed62084611056610988565b6040516110649291906133b1565b60405180910390a45050505050565b60606066805461069690612d8c565b610a80338383611e42565b60cf5442600160e01b90910463ffffffff16106110e55760405162461bcd60e51b8152602060048201526016602482015275105d58dd1a5bdb881a185cdb89dd081cdd185c9d195960521b60448201526064016107b5565b6110ed611f09565b80611101575060d0544263ffffffff909116115b6111415760405162461bcd60e51b8152602060048201526011602482015270105d58dd1a5bdb881a185cc8195b991959607a1b60448201526064016107b5565b60cf546000906111649033908490600160801b90046001600160601b031661186f565b60ca5460c95491925033916001600160801b0391821691167fe769fc898fc4270eeb917d426bbe99a4b46bd89dd4af40c6e28ecce84784c8a6846111a6610988565b6040516111b49291906133b1565b60405180910390a45050565b604080516101e0810182526000808252606060208301819052928201839052828201929092526080810182905260a0810182905260c0810182905260e08101829052610100810182905261012081018290526101408101829052610160810182905261018081018290526101a081018290526101c0810191909152604080516101e0810190915260ca80546001600160801b0316825260cb805460208401919061126990612d8c565b80601f016020809104026020016040519081016040528092919081815260200182805461129590612d8c565b80156112e25780601f106112b7576101008083540402835291602001916112e2565b820191906000526020600020905b8154815290600101906020018083116112c557829003601f168201915b505050505081526020016002820180546112fb90612d8c565b80601f016020809104026020016040519081016040528092919081815260200182805461132790612d8c565b80156113745780601f1061134957610100808354040283529160200191611374565b820191906000526020600020905b81548152906001019060200180831161135757829003601f168201915b5050505050815260200160038201805461138d90612d8c565b80601f01602080910402602001604051908101604052809291908181526020018280546113b990612d8c565b80156114065780601f106113db57610100808354040283529160200191611406565b820191906000526020600020905b8154815290600101906020018083116113e957829003601f168201915b505050918352505060048201546001600160a01b0381166020830152600160a01b900461ffff16604082015260058201546001600160601b038082166060840152600160601b80830463ffffffff9081166080860152600160801b80850490931660a0860152600160e01b909304831660c085015260069094015480831660e085015264010000000081048316610100850152600160401b8104831661012085015293840490911661014083015290910460ff1661016090910152919050565b6114ce611815565b60cf805463ffffffff909216600160601b0263ffffffff60601b19909216919091179055565b6114fe3383611b8a565b61151a5760405162461bcd60e51b81526004016107b590612ee7565b610e3884848484611f46565b606061153182611748565b600061153b611f79565b9050600081511161155b5760405180602001604052806000815250611586565b8061156584611f8b565b604051602001611576929190613408565b6040516020818303038152906040525b9392505050565b611595611815565b60ce546040516000916001600160a01b03169047908381818185875af1925050503d80600081146115e2576040519150601f19603f3d011682016040523d82523d6000602084013e6115e7565b606091505b50509050806116525760405162461bcd60e51b815260206004820152603160248201527f556e61626c6520746f2073656e642076616c75653a20726563697069656e74206044820152701b585e481a185d99481c995d995c9d1959607a1b60648201526084016107b5565b50565b61165d611815565b60cf805463ffffffff909216600160e01b026001600160e01b03909216919091179055565b61168a611815565b6001600160a01b0381166116ef5760405162461bcd60e51b815260206004820152602660248201527f4f776e61626c653a206e6577206f776e657220697320746865207a65726f206160448201526564647265737360d01b60648201526084016107b5565b61165281611d7a565b60006001600160e01b031982166380ac58cd60e01b148061172957506001600160e01b03198216635b5e139f60e01b145b8061068157506301ffc9a760e01b6001600160e01b0319831614610681565b6000818152606760205260409020546001600160a01b03166116525760405162461bcd60e51b8152602060048201526018602482015277115490cdcc8c4e881a5b9d985b1a59081d1bdad95b88125160421b60448201526064016107b5565b600081815260696020526040902080546001600160a01b0319166001600160a01b03841690811790915581906117dc82610a84565b6001600160a01b03167f8c5be1e5ebec7d5bd14f71427d1e84f3dd0314c0f7b2291e5b200ac8c7c3b92560405160405180910390a45050565b6097546001600160a01b03163314610b7c5760405162461bcd60e51b815260206004820181905260248201527f4f776e61626c653a2063616c6c6572206973206e6f7420746865206f776e657260448201526064016107b5565b60606001600160a01b0384166118c75760405162461bcd60e51b815260206004820181905260248201527f4552433732313a206d696e7420746f20746865207a65726f206164647265737360448201526064016107b5565b60008363ffffffff161161192d5760405162461bcd60e51b815260206004820152602760248201527f4552433732313a206e65656420746f206d696e74206174206c65617374206f6e60448201526632903a37b5b2b760c91b60648201526084016107b5565b60d05463ffffffff600160601b909104811690841661194b33610ae4565b6119559190613437565b11156119b85760405162461bcd60e51b815260206004820152602c60248201527f4578636565642074686520726172656d656e7420686f6c64696e67206c696d6960448201526b1d081c195c881dd85b1b195d60a21b60648201526084016107b5565b6119c863ffffffff84168361344f565b6001600160601b0316341015611a325760405162461bcd60e51b815260206004820152602960248201527f4d7573742073656e6420656e6f75676820746f20707572636861736520746865604482015268081c985c995b595b9d60ba1b60648201526084016107b5565b60d35463ffffffff9081169084161115611a5e5760405162461bcd60e51b81526004016107b590612dfc565b60008363ffffffff1667ffffffffffffffff811115611a7f57611a7f61294c565b604051908082528060200260200182016040528015611aa8578160200160208202803683370190505b5060d35490915063ffffffff1660005b8563ffffffff168163ffffffff161015611b675760d054600090600160801b900460011615611af257611aeb8884612028565b9050611b19565b60d05460d354611b169163ffffffff640100000000909104811686900391166120bf565b90505b611b29888263ffffffff166121b5565b80848363ffffffff1681518110611b4257611b42612e46565b63ffffffff909216602092830291909101909101525060001990910190600101611ab8565b5060d3805463ffffffff191663ffffffff92909216919091179055949350505050565b600080611b9683610a84565b9050806001600160a01b0316846001600160a01b03161480611bdd57506001600160a01b038082166000908152606a602090815260408083209388168352929052205460ff165b80611c015750836001600160a01b0316611bf684610719565b6001600160a01b0316145b949350505050565b826001600160a01b0316611c1c82610a84565b6001600160a01b031614611c425760405162461bcd60e51b81526004016107b59061347e565b6001600160a01b038216611ca45760405162461bcd60e51b8152602060048201526024808201527f4552433732313a207472616e7366657220746f20746865207a65726f206164646044820152637265737360e01b60648201526084016107b5565b611cb1838383600161234e565b826001600160a01b0316611cc482610a84565b6001600160a01b031614611cea5760405162461bcd60e51b81526004016107b59061347e565b600081815260696020908152604080832080546001600160a01b03199081169091556001600160a01b0387811680865260688552838620805460001901905590871680865283862080546001019055868652606790945282852080549092168417909155905184937fddf252ad1be2c89b69c2b068fc378daa952ba7f163c4a11628f55a4df523b3ef91a4505050565b609780546001600160a01b038381166001600160a01b0319831681179093556040519116919082907f8be0079c531659141344cd1fd0a4f28419497f9722a3daafe3b4186f6b6457e090600090a35050565b600054610100900460ff16611df35760405162461bcd60e51b81526004016107b5906134c3565b610a8082826123d6565b600054610100900460ff16611e245760405162461bcd60e51b81526004016107b5906134c3565b610b7c612424565b600082611e398584612454565b14949350505050565b816001600160a01b0316836001600160a01b03161415611ea45760405162461bcd60e51b815260206004820152601960248201527f4552433732313a20617070726f766520746f2063616c6c65720000000000000060448201526064016107b5565b6001600160a01b038381166000818152606a6020908152604080832094871680845294825291829020805460ff191686151590811790915591519182527f17307eab39ab6107e8899845ad3d59bd9653f200f220920489ca2b5937696c31910161097b565b60d054600090600160801b9004600216158015906109ad5750611f2a610988565b60d05463ffffffff918216600160401b90910490911611905090565b611f51848484611c09565b611f5d84848484612499565b610e385760405162461bcd60e51b81526004016107b59061350e565b606060ca600301805461069690612d8c565b60606000611f98836125a6565b600101905060008167ffffffffffffffff811115611fb857611fb861294c565b6040519080825280601f01601f191660200182016040528015611fe2576020820181803683370190505b5090508181016020015b600019016f181899199a1a9b1b9c1cb0b131b232b360811b600a86061a8153600a850494508461201b57612020565b611fec565b509392505050565b600080833a43424461203b600184613560565b604080516001600160a01b0390971660208801528601949094526060850192909252608084015260a08301524060c08201523060e082015263ffffffff84166101008201526101200160408051601f198184030181529190528051602090910120905060006120aa8483613577565b90506120b681856120bf565b95945050505050565b63ffffffff808316600090815260d2602052604081205490911681816120e65750836120e9565b50805b60006120f6600186612ec2565b63ffffffff808216600081815260d26020526040902054929350918116919088161461217d5763ffffffff81166121545763ffffffff878116600090815260d260205260409020805463ffffffff191691841691909117905561217d565b63ffffffff878116600090815260d260205260409020805463ffffffff19169183169190911790555b63ffffffff8116156121aa5763ffffffff8216600090815260d260205260409020805463ffffffff191690555b509095945050505050565b6001600160a01b03821661220b5760405162461bcd60e51b815260206004820181905260248201527f4552433732313a206d696e7420746f20746865207a65726f206164647265737360448201526064016107b5565b6000818152606760205260409020546001600160a01b0316156122705760405162461bcd60e51b815260206004820152601c60248201527f4552433732313a20746f6b656e20616c7265616479206d696e7465640000000060448201526064016107b5565b61227e60008383600161234e565b6000818152606760205260409020546001600160a01b0316156122e35760405162461bcd60e51b815260206004820152601c60248201527f4552433732313a20746f6b656e20616c7265616479206d696e7465640000000060448201526064016107b5565b6001600160a01b038216600081815260686020908152604080832080546001019055848352606790915280822080546001600160a01b0319168417905551839291907fddf252ad1be2c89b69c2b068fc378daa952ba7f163c4a11628f55a4df523b3ef908290a45050565b6001811115610e38576001600160a01b03841615612394576001600160a01b0384166000908152606860205260408120805483929061238e908490613560565b90915550505b6001600160a01b03831615610e38576001600160a01b038316600090815260686020526040812080548392906123cb908490613437565b909155505050505050565b600054610100900460ff166123fd5760405162461bcd60e51b81526004016107b5906134c3565b81516124109060659060208501906126aa565b5080516108569060669060208401906126aa565b600054610100900460ff1661244b5760405162461bcd60e51b81526004016107b5906134c3565b610b7c33611d7a565b600081815b8451811015612020576124858286838151811061247857612478612e46565b602002602001015161267e565b9150806124918161359a565b915050612459565b60006001600160a01b0384163b1561259b57604051630a85bd0160e11b81526001600160a01b0385169063150b7a02906124dd9033908990889088906004016135b5565b602060405180830381600087803b1580156124f757600080fd5b505af1925050508015612527575060408051601f3d908101601f19168201909252612524918101906135f2565b60015b612581573d808015612555576040519150601f19603f3d011682016040523d82523d6000602084013e61255a565b606091505b5080516125795760405162461bcd60e51b81526004016107b59061350e565b805181602001fd5b6001600160e01b031916630a85bd0160e11b149050611c01565b506001949350505050565b60008072184f03e93ff9f4daa797ed6e38ed64bf6a1f0160401b83106125e55772184f03e93ff9f4daa797ed6e38ed64bf6a1f0160401b830492506040015b6d04ee2d6d415b85acef81000000008310612611576d04ee2d6d415b85acef8100000000830492506020015b662386f26fc10000831061262f57662386f26fc10000830492506010015b6305f5e1008310612647576305f5e100830492506008015b612710831061265b57612710830492506004015b6064831061266d576064830492506002015b600a83106106815760010192915050565b600081831061269a576000828152602084905260409020611586565b5060009182526020526040902090565b8280546126b690612d8c565b90600052602060002090601f0160209004810192826126d8576000855561271e565b82601f106126f157805160ff191683800117855561271e565b8280016001018555821561271e579182015b8281111561271e578251825591602001919060010190612703565b5061272a92915061272e565b5090565b5b8082111561272a576000815560010161272f565b6001600160e01b03198116811461165257600080fd5b60006020828403121561276b57600080fd5b813561158681612743565b60005b83811015612791578181015183820152602001612779565b83811115610e385750506000910152565b600081518084526127ba816020860160208601612776565b601f01601f19169290920160200192915050565b60208152600061158660208301846127a2565b6000602082840312156127f357600080fd5b5035919050565b6001600160a01b038116811461165257600080fd5b6000806040838503121561282257600080fd5b823561282d816127fa565b946020939093013593505050565b60008083601f84011261284d57600080fd5b50813567ffffffffffffffff81111561286557600080fd5b6020830191508360208260051b8501011115610a4357600080fd5b63ffffffff8116811461165257600080fd5b6000806000604084860312156128a757600080fd5b833567ffffffffffffffff8111156128be57600080fd5b6128ca8682870161283b565b90945092505060208401356128de81612880565b809150509250925092565b6000806000606084860312156128fe57600080fd5b8335612909816127fa565b92506020840135612919816127fa565b929592945050506040919091013590565b6000806040838503121561293d57600080fd5b50508035926020909101359150565b634e487b7160e01b600052604160045260246000fd5b600067ffffffffffffffff8084111561297d5761297d61294c565b604051601f8501601f19908116603f011681019082821181831017156129a5576129a561294c565b816040528093508581528686860111156129be57600080fd5b858560208301376000602087830101525050509392505050565b6000602082840312156129ea57600080fd5b813567ffffffffffffffff811115612a0157600080fd5b8201601f81018413612a1257600080fd5b611c0184823560208401612962565b600060208284031215612a3357600080fd5b8135611586816127fa565b600060208284031215612a5057600080fd5b813561158681612880565b6001600160801b038116811461165257600080fd5b600080600060608486031215612a8557600080fd5b8335612a90816127fa565b92506020840135612aa081612a5b565b9150604084013567ffffffffffffffff811115612abc57600080fd5b84016101e081870312156128de57600080fd5b600080600060408486031215612ae457600080fd5b8335612aef81612880565b9250602084013567ffffffffffffffff811115612b0b57600080fd5b612b178682870161283b565b9497909650939450505050565b60008060408385031215612b3757600080fd5b8235612b42816127fa565b915060208301358015158114612b5757600080fd5b809150509250929050565b60208152612b7c6020820183516001600160801b03169052565b600060208301516101e0806040850152612b9a6102008501836127a2565b91506040850151601f1980868503016060870152612bb884836127a2565b9350606087015191508086850301608087015250612bd683826127a2565b9250506080850151612bf360a08601826001600160a01b03169052565b5060a085015161ffff811660c08601525060c08501516001600160601b03811660e08601525060e0850151610100612c328187018363ffffffff169052565b8601519050610120612c4e868201836001600160601b03169052565b8601519050610140612c678682018363ffffffff169052565b8601519050610160612c808682018363ffffffff169052565b8601519050610180612c998682018363ffffffff169052565b86015190506101a0612cb28682018363ffffffff169052565b86015190506101c0612ccb8682018363ffffffff169052565b9095015160ff1693019290925250919050565b60008060008060808587031215612cf457600080fd5b8435612cff816127fa565b93506020850135612d0f816127fa565b925060408501359150606085013567ffffffffffffffff811115612d3257600080fd5b8501601f81018713612d4357600080fd5b612d5287823560208401612962565b91505092959194509250565b60008060408385031215612d7157600080fd5b8235612d7c816127fa565b91506020830135612b57816127fa565b600181811c90821680612da057607f821691505b60208210811415612dc157634e487b7160e01b600052602260045260246000fd5b50919050565b634e487b7160e01b600052601160045260246000fd5b6000816000190483118215151615612df757612df7612dc7565b500290565b6020808252602a908201527f4552433732313a206d696e74696e67206d6f726520746f6b656e73207468616e60408201526920617661696c61626c6560b01b606082015260800190565b634e487b7160e01b600052603260045260246000fd5b6060808252810184905260008560808301825b87811015612e9f578235612e82816127fa565b6001600160a01b0316825260209283019290910190600101612e6f565b5063ffffffff958616602085015293909416604090920191909152509392505050565b600063ffffffff83811690831681811015612edf57612edf612dc7565b039392505050565b6020808252602d908201527f4552433732313a2063616c6c6572206973206e6f7420746f6b656e206f776e6560408201526c1c881bdc88185c1c1c9bdd9959609a1b606082015260800190565b634e487b7160e01b600052601260045260246000fd5b600082612f5957612f59612f34565b500490565b6000808335601e19843603018112612f7557600080fd5b83018035915067ffffffffffffffff821115612f9057600080fd5b602001915036819003821315610a4357600080fd5b6000813561068181612a5b565b601f82111561085657600081815260208120601f850160051c81016020861015612fd95750805b601f850160051c820191505b81811015612ff857828155600101612fe5565b505050505050565b67ffffffffffffffff8311156130185761301861294c565b61302c836130268354612d8c565b83612fb2565b6000601f84116001811461306057600085156130485750838201355b600019600387901b1c1916600186901b1783556130ba565b600083815260209020601f19861690835b828110156130915786850135825560209485019460019092019101613071565b50868210156130ae5760001960f88860031b161c19848701351681555b505060018560011b0183555b5050505050565b60008135610681816127fa565b6000813561ffff8116811461068157600080fd5b600081356001600160601b038116811461068157600080fd5b6000813561068181612880565b6000813560ff8116811461068157600080fd5b61314461312783612fa5565b82546001600160801b0319166001600160801b0391909116178255565b6131516020830183612f5e565b61315f818360018601613000565b505061316e6040830183612f5e565b61317c818360028601613000565b505061318b6060830183612f5e565b613199818360038601613000565b5050600481016131cb6131ae608085016130c1565b82546001600160a01b0319166001600160a01b0391909116178255565b6131fa6131da60a085016130ce565b82805461ffff60a01b191660a09290921b61ffff60a01b16919091179055565b506005810161323061320e60c085016130e2565b82546bffffffffffffffffffffffff19166001600160601b0391909116178255565b61326361323f60e085016130fb565b82805463ffffffff60601b191660609290921b63ffffffff60601b16919091179055565b6132a761327361010085016130e2565b8280546bffffffffffffffffffffffff60801b191660809290921b6bffffffffffffffffffffffff60801b16919091179055565b6132db6132b761012085016130fb565b8280546001600160e01b031660e09290921b6001600160e01b031916919091179055565b50600681016133076132f061014085016130fb565b825463ffffffff191663ffffffff91909116178255565b61333961331761016085016130fb565b825467ffffffff00000000191660209190911b67ffffffff0000000016178255565b61337361334961018085016130fb565b82546bffffffff0000000000000000191660409190911b6bffffffff000000000000000016178255565b61338361323f6101a085016130fb565b6108566133936101c08501613108565b82805460ff60801b191660809290921b60ff60801b16919091179055565b604080825283519082018190526000906020906060840190828701845b828110156133f057815163ffffffff16845292840192908401906001016133ce565b50505063ffffffff9490941692019190915250919050565b6000835161341a818460208801612776565b83519083019061342e818360208801612776565b01949350505050565b6000821982111561344a5761344a612dc7565b500190565b60006001600160601b038083168185168183048111821515161561347557613475612dc7565b02949350505050565b60208082526025908201527f4552433732313a207472616e736665722066726f6d20696e636f72726563742060408201526437bbb732b960d91b606082015260800190565b6020808252602b908201527f496e697469616c697a61626c653a20636f6e7472616374206973206e6f74206960408201526a6e697469616c697a696e6760a81b606082015260800190565b60208082526032908201527f4552433732313a207472616e7366657220746f206e6f6e20455243373231526560408201527131b2b4bb32b91034b6b83632b6b2b73a32b960711b606082015260800190565b60008282101561357257613572612dc7565b500390565b600063ffffffff8084168061358e5761358e612f34565b92169190910692915050565b60006000198214156135ae576135ae612dc7565b5060010190565b6001600160a01b03858116825284166020820152604081018390526080606082018190526000906135e8908301846127a2565b9695505050505050565b60006020828403121561360457600080fd5b81516115868161274356fea2646970667358221220f2c8aeb2cc2edcd6193bab75c34618ee6e54777d5efc965337c0a48f273ff64664736f6c63430008090033608060405234801561001057600080fd5b506040516104e43803806104e483398101604081905261002f91610151565b61003833610047565b61004181610097565b50610181565b600080546001600160a01b038381166001600160a01b0319831681178455604051919092169283917f8be0079c531659141344cd1fd0a4f28419497f9722a3daafe3b4186f6b6457e09190a35050565b6100aa8161014260201b6101a01760201c565b6101205760405162461bcd60e51b815260206004820152603360248201527f5570677261646561626c65426561636f6e3a20696d706c656d656e746174696f60448201527f6e206973206e6f74206120636f6e747261637400000000000000000000000000606482015260840160405180910390fd5b600180546001600160a01b0319166001600160a01b0392909216919091179055565b6001600160a01b03163b151590565b60006020828403121561016357600080fd5b81516001600160a01b038116811461017a57600080fd5b9392505050565b610354806101906000396000f3fe608060405234801561001057600080fd5b50600436106100575760003560e01c80633659cfe61461005c5780635c60da1b14610071578063715018a61461009a5780638da5cb5b146100a2578063f2fde38b146100b3575b600080fd5b61006f61006a3660046102ee565b6100c6565b005b6001546001600160a01b03165b6040516001600160a01b03909116815260200160405180910390f35b61006f61010e565b6000546001600160a01b031661007e565b61006f6100c13660046102ee565b610122565b6100ce6101af565b6100d781610209565b6040516001600160a01b038216907fbc7cd75a20ee27fd9adebab32041f755214dbc6bffa90cc0225b39da2e5c2d3b90600090a250565b6101166101af565b610120600061029e565b565b61012a6101af565b6001600160a01b0381166101945760405162461bcd60e51b815260206004820152602660248201527f4f776e61626c653a206e6577206f776e657220697320746865207a65726f206160448201526564647265737360d01b60648201526084015b60405180910390fd5b61019d8161029e565b50565b6001600160a01b03163b151590565b6000546001600160a01b031633146101205760405162461bcd60e51b815260206004820181905260248201527f4f776e61626c653a2063616c6c6572206973206e6f7420746865206f776e6572604482015260640161018b565b6001600160a01b0381163b61027c5760405162461bcd60e51b815260206004820152603360248201527f5570677261646561626c65426561636f6e3a20696d706c656d656e746174696f6044820152721b881a5cc81b9bdd08184818dbdb9d1c9858dd606a1b606482015260840161018b565b600180546001600160a01b0319166001600160a01b0392909216919091179055565b600080546001600160a01b038381166001600160a01b0319831681178455604051919092169283917f8be0079c531659141344cd1fd0a4f28419497f9722a3daafe3b4186f6b6457e09190a35050565b60006020828403121561030057600080fd5b81356001600160a01b038116811461031757600080fd5b939250505056fea264697066735822122071948ec535f218355f7b1a6b146021e45a71d4a4e7804487b9425355928d0eaa64736f6c63430008090033608060405260405161093b38038061093b8339810160408190526100229161047e565b61002e82826000610035565b50506105a8565b61003e8361010f565b6040516001600160a01b038416907f1cf3b03a6cf19fa2baba4df148e9dcabedea7f8a5c07840e207e5c089be95d3e90600090a260008251118061007f5750805b1561010a57610108836001600160a01b0316635c60da1b6040518163ffffffff1660e01b815260040160206040518083038186803b1580156100c057600080fd5b505afa1580156100d4573d6000803e3d6000fd5b505050506040513d601f19601f820116820180604052508101906100f8919061053e565b836102c160201b6100291760201c565b505b505050565b610122816102ed60201b6100551760201c565b6101815760405162461bcd60e51b815260206004820152602560248201527f455243313936373a206e657720626561636f6e206973206e6f74206120636f6e6044820152641d1c9858dd60da1b60648201526084015b60405180910390fd5b610204816001600160a01b0316635c60da1b6040518163ffffffff1660e01b815260040160206040518083038186803b1580156101bd57600080fd5b505afa1580156101d1573d6000803e3d6000fd5b505050506040513d601f19601f820116820180604052508101906101f5919061053e565b6102ed60201b6100551760201c565b6102695760405162461bcd60e51b815260206004820152603060248201527f455243313936373a20626561636f6e20696d706c656d656e746174696f6e206960448201526f1cc81b9bdd08184818dbdb9d1c9858dd60821b6064820152608401610178565b806102a07fa3f0ad74e5423aebfd80d3ef4346578335a9a72aeaee59ff6cb3582b35133d5060001b6102fc60201b6100641760201c565b80546001600160a01b0319166001600160a01b039290921691909117905550565b60606102e68383604051806060016040528060278152602001610914602791396102ff565b9392505050565b6001600160a01b03163b151590565b90565b6060600080856001600160a01b03168560405161031c9190610559565b600060405180830381855af49150503d8060008114610357576040519150601f19603f3d011682016040523d82523d6000602084013e61035c565b606091505b50909250905061036e86838387610378565b9695505050505050565b606083156103e45782516103dd576001600160a01b0385163b6103dd5760405162461bcd60e51b815260206004820152601d60248201527f416464726573733a2063616c6c20746f206e6f6e2d636f6e74726163740000006044820152606401610178565b50816103ee565b6103ee83836103f6565b949350505050565b8151156104065781518083602001fd5b8060405162461bcd60e51b81526004016101789190610575565b80516001600160a01b038116811461043757600080fd5b919050565b634e487b7160e01b600052604160045260246000fd5b60005b8381101561046d578181015183820152602001610455565b838111156101085750506000910152565b6000806040838503121561049157600080fd5b61049a83610420565b60208401519092506001600160401b03808211156104b757600080fd5b818501915085601f8301126104cb57600080fd5b8151818111156104dd576104dd61043c565b604051601f8201601f19908116603f011681019083821181831017156105055761050561043c565b8160405282815288602084870101111561051e57600080fd5b61052f836020830160208801610452565b80955050505050509250929050565b60006020828403121561055057600080fd5b6102e682610420565b6000825161056b818460208701610452565b9190910192915050565b6020815260008251806020840152610594816040850160208701610452565b601f01601f19169190910160400192915050565b61035d806105b76000396000f3fe60806040523661001357610011610017565b005b6100115b610027610022610067565b61010f565b565b606061004e838360405180606001604052806027815260200161030160279139610133565b9392505050565b6001600160a01b03163b151590565b90565b600061009a7fa3f0ad74e5423aebfd80d3ef4346578335a9a72aeaee59ff6cb3582b35133d50546001600160a01b031690565b6001600160a01b0316635c60da1b6040518163ffffffff1660e01b815260040160206040518083038186803b1580156100d257600080fd5b505afa1580156100e6573d6000803e3d6000fd5b505050506040513d601f19601f8201168201806040525081019061010a9190610258565b905090565b3660008037600080366000845af43d6000803e80801561012e573d6000f35b3d6000fd5b6060600080856001600160a01b03168560405161015091906102b1565b600060405180830381855af49150503d806000811461018b576040519150601f19603f3d011682016040523d82523d6000602084013e610190565b606091505b50915091506101a1868383876101ab565b9695505050505050565b6060831561021c578251610215576001600160a01b0385163b6102155760405162461bcd60e51b815260206004820152601d60248201527f416464726573733a2063616c6c20746f206e6f6e2d636f6e747261637400000060448201526064015b60405180910390fd5b5081610226565b610226838361022e565b949350505050565b81511561023e5781518083602001fd5b8060405162461bcd60e51b815260040161020c91906102cd565b60006020828403121561026a57600080fd5b81516001600160a01b038116811461004e57600080fd5b60005b8381101561029c578181015183820152602001610284565b838111156102ab576000848401525b50505050565b600082516102c3818460208701610281565b9190910192915050565b60208152600082518060208401526102ec816040850160208701610281565b601f01601f1916919091016040019291505056fe416464726573733a206c6f772d6c6576656c2064656c65676174652063616c6c206661696c6564a264697066735822122008e3e42bc0d525e25f65a02e5f2cbfc4108e5b6fca182c0ce53daa9db213f98364736f6c63430008090033416464726573733a206c6f772d6c6576656c2064656c65676174652063616c6c206661696c6564360894a13ba1a3210667c828492db98dca3e2076cc3735a920a3ca505d382bbc416464726573733a206c6f772d6c6576656c2064656c65676174652063616c6c206661696c6564a2646970667358221220c8b54567d7854a11b46640722d126a8cdc4f20ce7a29bae8281e051b8b500e9d64736f6c63430008090033",
  "devdoc": {
    "kind": "dev",
    "methods": {
      "constructor": {
        "custom:oz-upgrades-unsafe-allow": "constructor"
      },
      "owner()": {
        "details": "Returns the address of the current owner."
      },
      "proxiableUUID()": {
        "details": "Implementation of the ERC1822 {proxiableUUID} function. This returns the storage slot used by the implementation. It is used to validate the implementation's compatibility when performing an upgrade. IMPORTANT: A proxy pointing at a proxiable contract should not be considered proxiable itself, because this risks bricking a proxy that upgrades to it, by delegating to itself until out of gas. Thus it is critical that this function revert if invoked through a proxy. This is guaranteed by the `notDelegated` modifier."
      },
      "renounceOwnership()": {
        "details": "Leaves the contract without owner. It will not be possible to call `onlyOwner` functions anymore. Can only be called by the current owner. NOTE: Renouncing ownership will leave the contract without an owner, thereby removing any functionality that is only available to the owner."
      },
      "transferOwnership(address)": {
        "details": "Transfers ownership of the contract to a new account (`newOwner`). Can only be called by the current owner."
      },
      "upgradeTo(address)": {
        "details": "Upgrade the implementation of the proxy to `newImplementation`. Calls {_authorizeUpgrade}. Emits an {Upgraded} event."
      },
      "upgradeToAndCall(address,bytes)": {
        "details": "Upgrade the implementation of the proxy to `newImplementation`, and subsequently execute the function call encoded in `data`. Calls {_authorizeUpgrade}. Emits an {Upgraded} event."
      }
    },
    "version": 1
  },
  "userdoc": {
    "kind": "user",
    "methods": {},
    "version": 1
  },
  "storageLayout": {
    "storage": [
      {
        "astId": 546,
        "contract": "contracts/RarementCreator.sol:RarementCreator",
        "label": "_initialized",
        "offset": 0,
        "slot": "0",
        "type": "t_uint8"
      },
      {
        "astId": 549,
        "contract": "contracts/RarementCreator.sol:RarementCreator",
        "label": "_initializing",
        "offset": 1,
        "slot": "0",
        "type": "t_bool"
      },
      {
        "astId": 528,
        "contract": "contracts/RarementCreator.sol:RarementCreator",
        "label": "__gap",
        "offset": 0,
        "slot": "1",
        "type": "t_array(t_uint256)50_storage"
      },
      {
        "astId": 843,
        "contract": "contracts/RarementCreator.sol:RarementCreator",
        "label": "__gap",
        "offset": 0,
        "slot": "51",
        "type": "t_array(t_uint256)50_storage"
      },
      {
        "astId": 2300,
        "contract": "contracts/RarementCreator.sol:RarementCreator",
        "label": "__gap",
        "offset": 0,
        "slot": "101",
        "type": "t_array(t_uint256)50_storage"
      },
      {
        "astId": 10,
        "contract": "contracts/RarementCreator.sol:RarementCreator",
        "label": "_owner",
        "offset": 0,
        "slot": "151",
        "type": "t_address"
      },
      {
        "astId": 130,
        "contract": "contracts/RarementCreator.sol:RarementCreator",
        "label": "__gap",
        "offset": 0,
        "slot": "152",
        "type": "t_array(t_uint256)49_storage"
      },
      {
        "astId": 6021,
        "contract": "contracts/RarementCreator.sol:RarementCreator",
        "label": "numRarements",
        "offset": 0,
        "slot": "201",
        "type": "t_struct(Counter)2307_storage"
      },
      {
        "astId": 6023,
        "contract": "contracts/RarementCreator.sol:RarementCreator",
        "label": "beaconAddress",
        "offset": 0,
        "slot": "202",
        "type": "t_address"
      },
      {
        "astId": 6026,
        "contract": "contracts/RarementCreator.sol:RarementCreator",
        "label": "rarementContracts",
        "offset": 0,
        "slot": "203",
        "type": "t_array(t_address)dyn_storage"
      }
    ],
    "types": {
      "t_address": {
        "encoding": "inplace",
        "label": "address",
        "numberOfBytes": "20"
      },
      "t_array(t_address)dyn_storage": {
        "base": "t_address",
        "encoding": "dynamic_array",
        "label": "address[]",
        "numberOfBytes": "32"
      },
      "t_array(t_uint256)49_storage": {
        "base": "t_uint256",
        "encoding": "inplace",
        "label": "uint256[49]",
        "numberOfBytes": "1568"
      },
      "t_array(t_uint256)50_storage": {
        "base": "t_uint256",
        "encoding": "inplace",
        "label": "uint256[50]",
        "numberOfBytes": "1600"
      },
      "t_bool": {
        "encoding": "inplace",
        "label": "bool",
        "numberOfBytes": "1"
      },
      "t_struct(Counter)2307_storage": {
        "encoding": "inplace",
        "label": "struct CountersUpgradeable.Counter",
        "members": [
          {
            "astId": 2306,
            "contract": "contracts/RarementCreator.sol:RarementCreator",
            "label": "_value",
            "offset": 0,
            "slot": "0",
            "type": "t_uint256"
          }
        ],
        "numberOfBytes": "32"
      },
      "t_uint256": {
        "encoding": "inplace",
        "label": "uint256",
        "numberOfBytes": "32"
      },
      "t_uint8": {
        "encoding": "inplace",
        "label": "uint8",
        "numberOfBytes": "1"
      }
    }
  }
}