{
  "address": "0x5FbDB2315678afecb367f032d93F642f64180aa3",
  "abi": [
    {
      "inputs": [],
      "stateMutability": "nonpayable",
      "type": "constructor"
    },
    {
      "anonymous": false,
      "inputs": [
        {
          "indexed": false,
          "internalType": "address",
          "name": "previousAdmin",
          "type": "address"
        },
        {
          "indexed": false,
          "internalType": "address",
          "name": "newAdmin",
          "type": "address"
        }
      ],
      "name": "AdminChanged",
      "type": "event"
    },
    {
      "anonymous": false,
      "inputs": [
        {
          "indexed": true,
          "internalType": "address",
          "name": "beacon",
          "type": "address"
        }
      ],
      "name": "BeaconUpgraded",
      "type": "event"
    },
    {
      "anonymous": false,
      "inputs": [
        {
          "indexed": false,
          "internalType": "uint8",
          "name": "version",
          "type": "uint8"
        }
      ],
      "name": "Initialized",
      "type": "event"
    },
    {
      "anonymous": false,
      "inputs": [
        {
          "indexed": true,
          "internalType": "address",
          "name": "previousOwner",
          "type": "address"
        },
        {
          "indexed": true,
          "internalType": "address",
          "name": "newOwner",
          "type": "address"
        }
      ],
      "name": "OwnershipTransferred",
      "type": "event"
    },
    {
      "anonymous": false,
      "inputs": [
        {
          "indexed": true,
          "internalType": "uint256",
          "name": "rarementId",
          "type": "uint256"
        },
        {
          "indexed": true,
          "internalType": "uint256",
          "name": "artistId",
          "type": "uint256"
        },
        {
          "components": [
            {
              "internalType": "uint128",
              "name": "artistId",
              "type": "uint128"
            },
            {
              "internalType": "string",
              "name": "name",
              "type": "string"
            },
            {
              "internalType": "string",
              "name": "symbol",
              "type": "string"
            },
            {
              "internalType": "string",
              "name": "baseURI",
              "type": "string"
            },
            {
              "internalType": "address payable",
              "name": "fundingRecipient",
              "type": "address"
            },
            {
              "internalType": "uint16",
              "name": "royaltyBPS",
              "type": "uint16"
            },
            {
              "internalType": "uint96",
              "name": "presalePrice",
              "type": "uint96"
            },
            {
              "internalType": "uint32",
              "name": "presaleStartTime",
              "type": "uint32"
            },
            {
              "internalType": "uint96",
              "name": "price",
              "type": "uint96"
            },
            {
              "internalType": "uint32",
              "name": "startTime",
              "type": "uint32"
            },
            {
              "internalType": "uint32",
              "name": "endTime",
              "type": "uint32"
            },
            {
              "internalType": "uint32",
              "name": "maxSupply",
              "type": "uint32"
            },
            {
              "internalType": "uint32",
              "name": "cutoffSupply",
              "type": "uint32"
            },
            {
              "internalType": "uint32",
              "name": "maxMintablePerAccount",
              "type": "uint32"
            },
            {
              "internalType": "uint8",
              "name": "flags",
              "type": "uint8"
            }
          ],
          "indexed": false,
          "internalType": "struct RarementInfo",
          "name": "info",
          "type": "tuple"
        },
        {
          "indexed": true,
          "internalType": "address",
          "name": "rarementAddress",
          "type": "address"
        }
      ],
      "name": "RarementCreated",
      "type": "event"
    },
    {
      "anonymous": false,
      "inputs": [
        {
          "indexed": true,
          "internalType": "address",
          "name": "implementation",
          "type": "address"
        }
      ],
      "name": "Upgraded",
      "type": "event"
    },
    {
      "inputs": [],
      "name": "beaconAddress",
      "outputs": [
        {
          "internalType": "address",
          "name": "",
          "type": "address"
        }
      ],
      "stateMutability": "view",
      "type": "function"
    },
    {
      "inputs": [
        {
          "components": [
            {
              "internalType": "uint128",
              "name": "artistId",
              "type": "uint128"
            },
            {
              "internalType": "string",
              "name": "name",
              "type": "string"
            },
            {
              "internalType": "string",
              "name": "symbol",
              "type": "string"
            },
            {
              "internalType": "string",
              "name": "baseURI",
              "type": "string"
            },
            {
              "internalType": "address payable",
              "name": "fundingRecipient",
              "type": "address"
            },
            {
              "internalType": "uint16",
              "name": "royaltyBPS",
              "type": "uint16"
            },
            {
              "internalType": "uint96",
              "name": "presalePrice",
              "type": "uint96"
            },
            {
              "internalType": "uint32",
              "name": "presaleStartTime",
              "type": "uint32"
            },
            {
              "internalType": "uint96",
              "name": "price",
              "type": "uint96"
            },
            {
              "internalType": "uint32",
              "name": "startTime",
              "type": "uint32"
            },
            {
              "internalType": "uint32",
              "name": "endTime",
              "type": "uint32"
            },
            {
              "internalType": "uint32",
              "name": "maxSupply",
              "type": "uint32"
            },
            {
              "internalType": "uint32",
              "name": "cutoffSupply",
              "type": "uint32"
            },
            {
              "internalType": "uint32",
              "name": "maxMintablePerAccount",
              "type": "uint32"
            },
            {
              "internalType": "uint8",
              "name": "flags",
              "type": "uint8"
            }
          ],
          "internalType": "struct RarementInfo",
          "name": "info",
          "type": "tuple"
        }
      ],
      "name": "createRarement",
      "outputs": [
        {
          "internalType": "address",
          "name": "",
          "type": "address"
        }
      ],
      "stateMutability": "nonpayable",
      "type": "function"
    },
    {
      "inputs": [],
      "name": "getCurrentCount",
      "outputs": [
        {
          "internalType": "uint256",
          "name": "",
          "type": "uint256"
        }
      ],
      "stateMutability": "view",
      "type": "function"
    },
    {
      "inputs": [],
      "name": "initialize",
      "outputs": [],
      "stateMutability": "nonpayable",
      "type": "function"
    },
    {
      "inputs": [],
      "name": "owner",
      "outputs": [
        {
          "internalType": "address",
          "name": "",
          "type": "address"
        }
      ],
      "stateMutability": "view",
      "type": "function"
    },
    {
      "inputs": [],
      "name": "proxiableUUID",
      "outputs": [
        {
          "internalType": "bytes32",
          "name": "",
          "type": "bytes32"
        }
      ],
      "stateMutability": "view",
      "type": "function"
    },
    {
      "inputs": [
        {
          "internalType": "uint256",
          "name": "",
          "type": "uint256"
        }
      ],
      "name": "rarementContracts",
      "outputs": [
        {
          "internalType": "address",
          "name": "",
          "type": "address"
        }
      ],
      "stateMutability": "view",
      "type": "function"
    },
    {
      "inputs": [],
      "name": "renounceOwnership",
      "outputs": [],
      "stateMutability": "nonpayable",
      "type": "function"
    },
    {
      "inputs": [
        {
          "internalType": "address",
          "name": "newOwner",
          "type": "address"
        }
      ],
      "name": "transferOwnership",
      "outputs": [],
      "stateMutability": "nonpayable",
      "type": "function"
    },
    {
      "inputs": [
        {
          "internalType": "address",
          "name": "newImplementation",
          "type": "address"
        }
      ],
      "name": "upgradeTo",
      "outputs": [],
      "stateMutability": "nonpayable",
      "type": "function"
    },
    {
      "inputs": [
        {
          "internalType": "address",
          "name": "newImplementation",
          "type": "address"
        },
        {
          "internalType": "bytes",
          "name": "data",
          "type": "bytes"
        }
      ],
      "name": "upgradeToAndCall",
      "outputs": [],
      "stateMutability": "payable",
      "type": "function"
    }
  ],
  "transactionHash": "0x4c00dd82aef9e821046e0fc3a673c0b725744038fa041a8b51f2ff12f9cb4253",
  "args": [],
  "numDeployments": 1,
  "solcInputHash": "d30ae9d91d49cb92f8d060ead25e0002",
  "bytecode": "0x60a06040523060805234801561001457600080fd5b5061001d610022565b6100e2565b600054610100900460ff161561008e5760405162461bcd60e51b815260206004820152602760248201527f496e697469616c697a61626c653a20636f6e747261637420697320696e697469604482015266616c697a696e6760c81b606482015260840160405180910390fd5b60005460ff90811610156100e0576000805460ff191660ff9081179091556040519081527f7f26b83ff96e1f2b6a682f133852f6798a09c465da95921460cefb38474024989060200160405180910390a15b565b608051615ab8610119600039600081816102330152818161027f015281816103270152818161036a01526104060152615ab86000f3fe608060405260043610620000a95760003560e01c80637e2ec6d0116200006c5780637e2ec6d0146200016d5780638129fc1c146200018f5780638da5cb5b14620001a7578063b14addf614620001c7578063dd51babf14620001ec578063f2fde38b146200020457600080fd5b80633659cfe614620000ae5780634f1ef28614620000d557806352d1902d14620000ec578063636f84571462000117578063715018a61462000155575b600080fd5b348015620000bb57600080fd5b50620000d3620000cd36600462000e5f565b62000229565b005b620000d3620000e636600462000f3f565b6200031d565b348015620000f957600080fd5b5062000104620003f9565b6040519081526020015b60405180910390f35b3480156200012457600080fd5b506200013c6200013636600462000faa565b620004af565b6040516001600160a01b0390911681526020016200010e565b3480156200016257600080fd5b50620000d3620004da565b3480156200017a57600080fd5b5060ca546200013c906001600160a01b031681565b3480156200019c57600080fd5b50620000d3620004f2565b348015620001b457600080fd5b506097546001600160a01b03166200013c565b348015620001d457600080fd5b506200013c620001e63660046200105e565b620006fe565b348015620001f957600080fd5b50620001046200086a565b3480156200021157600080fd5b50620000d36200022336600462000e5f565b6200087b565b6001600160a01b037f00000000000000000000000000000000000000000000000000000000000000001630036200027d5760405162461bcd60e51b815260040162000274906200121d565b60405180910390fd5b7f00000000000000000000000000000000000000000000000000000000000000006001600160a01b0316620002c860008051602062005a3c833981519152546001600160a01b031690565b6001600160a01b031614620002f15760405162461bcd60e51b8152600401620002749062001269565b620002fc81620008f7565b604080516000808252602082019092526200031a9183919062000901565b50565b6001600160a01b037f0000000000000000000000000000000000000000000000000000000000000000163003620003685760405162461bcd60e51b815260040162000274906200121d565b7f00000000000000000000000000000000000000000000000000000000000000006001600160a01b0316620003b360008051602062005a3c833981519152546001600160a01b031690565b6001600160a01b031614620003dc5760405162461bcd60e51b8152600401620002749062001269565b620003e782620008f7565b620003f58282600162000901565b5050565b6000306001600160a01b037f000000000000000000000000000000000000000000000000000000000000000016146200049b5760405162461bcd60e51b815260206004820152603860248201527f555550535570677261646561626c653a206d757374206e6f742062652063616c60448201527f6c6564207468726f7567682064656c656761746563616c6c0000000000000000606482015260840162000274565b5060008051602062005a3c83398151915290565b60cb8181548110620004c057600080fd5b6000918252602090912001546001600160a01b0316905081565b620004e462000a7e565b620004f0600062000ada565b565b600054610100900460ff1615808015620005135750600054600160ff909116105b806200052f5750303b1580156200052f575060005460ff166001145b620005945760405162461bcd60e51b815260206004820152602e60248201527f496e697469616c697a61626c653a20636f6e747261637420697320616c72656160448201526d191e481a5b9a5d1a585b1a5e995960921b606482015260840162000274565b6000805460ff191660011790558015620005b8576000805461ff0019166101001790555b620005c262000b2c565b620005cc62000b60565b6000604051620005dc9062000e1f565b604051809103906000f080158015620005f9573d6000803e3d6000fd5b50604051620006089062000e2d565b6001600160a01b039091168152602001604051809103906000f08015801562000635573d6000803e3d6000fd5b5060405163f2fde38b60e01b81523360048201529091506001600160a01b0382169063f2fde38b90602401600060405180830381600087803b1580156200067b57600080fd5b505af115801562000690573d6000803e3d6000fd5b505060ca80546001600160a01b0319166001600160a01b039490941693909317909255505080156200031a576000805461ff0019169055604051600181527f7f26b83ff96e1f2b6a682f133852f6798a09c465da95921460cefb38474024989060200160405180910390a150565b60006200070a62000a7e565b60006200071660c95490565b60ca546040519192506000916001600160a01b0390911690638139b4e960e01b906200074b903390869089906024016200144c565b60408051601f198184030181529181526020820180516001600160e01b03166001600160e01b03199094169390931790925290516200078a9062000e3b565b6200079792919062001475565b604051809103906000f080158015620007b4573d6000803e3d6000fd5b5060cb80546001810182556000919091527fa7ce836d032b2bf62b7e2097a8e0a6d8aeb35405ad15271e96d3b0188a1d06fb0180546001600160a01b0319166001600160a01b038316908117909155855160405192935090916001600160801b039091169084907f8e41b1883fdb366b6f74527a207393f4ac489b54d3f0ba73e640ebf3237d8b2a906200084a908990620014a3565b60405180910390a46200086160c980546001019055565b9150505b919050565b60006200087660c95490565b905090565b6200088562000a7e565b6001600160a01b038116620008ec5760405162461bcd60e51b815260206004820152602660248201527f4f776e61626c653a206e6577206f776e657220697320746865207a65726f206160448201526564647265737360d01b606482015260840162000274565b6200031a8162000ada565b6200031a62000a7e565b7f4910fdfa16fed3260ed0e7147f7cc6da11a60208b5b9406d12a635614ffd91435460ff16156200093c57620009378362000b8a565b505050565b826001600160a01b03166352d1902d6040518163ffffffff1660e01b8152600401602060405180830381865afa92505050801562000999575060408051601f3d908101601f191682019092526200099691810190620014b8565b60015b620009fe5760405162461bcd60e51b815260206004820152602e60248201527f45524331393637557067726164653a206e657720696d706c656d656e7461746960448201526d6f6e206973206e6f74205555505360901b606482015260840162000274565b60008051602062005a3c833981519152811462000a705760405162461bcd60e51b815260206004820152602960248201527f45524331393637557067726164653a20756e737570706f727465642070726f786044820152681a58589b195555525160ba1b606482015260840162000274565b506200093783838362000c29565b6097546001600160a01b03163314620004f05760405162461bcd60e51b815260206004820181905260248201527f4f776e61626c653a2063616c6c6572206973206e6f7420746865206f776e6572604482015260640162000274565b609780546001600160a01b038381166001600160a01b0319831681179093556040519116919082907f8be0079c531659141344cd1fd0a4f28419497f9722a3daafe3b4186f6b6457e090600090a35050565b600054610100900460ff1662000b565760405162461bcd60e51b81526004016200027490620014d2565b620004f062000c5a565b600054610100900460ff16620004f05760405162461bcd60e51b81526004016200027490620014d2565b6001600160a01b0381163b62000bf95760405162461bcd60e51b815260206004820152602d60248201527f455243313936373a206e657720696d706c656d656e746174696f6e206973206e60448201526c1bdd08184818dbdb9d1c9858dd609a1b606482015260840162000274565b60008051602062005a3c83398151915280546001600160a01b0319166001600160a01b0392909216919091179055565b62000c348362000c8f565b60008251118062000c425750805b15620009375762000c54838362000cd1565b50505050565b600054610100900460ff1662000c845760405162461bcd60e51b81526004016200027490620014d2565b620004f03362000ada565b62000c9a8162000b8a565b6040516001600160a01b038216907fbc7cd75a20ee27fd9adebab32041f755214dbc6bffa90cc0225b39da2e5c2d3b90600090a250565b60606001600160a01b0383163b62000d3b5760405162461bcd60e51b815260206004820152602660248201527f416464726573733a2064656c65676174652063616c6c20746f206e6f6e2d636f6044820152651b9d1c9858dd60d21b606482015260840162000274565b600080846001600160a01b03168460405162000d5891906200151d565b600060405180830381855af49150503d806000811462000d95576040519150601f19603f3d011682016040523d82523d6000602084013e62000d9a565b606091505b509150915062000dc5828260405180606001604052806027815260200162005a5c6027913962000dce565b95945050505050565b6060831562000ddf57508162000deb565b62000deb838362000df2565b9392505050565b81511562000e035781518083602001fd5b8060405162461bcd60e51b81526004016200027491906200153b565b613707806200155183390190565b6104e48062004c5883390190565b610900806200513c83390190565b6001600160a01b03811681146200031a57600080fd5b60006020828403121562000e7257600080fd5b813562000deb8162000e49565b634e487b7160e01b600052604160045260246000fd5b6040516101e0810167ffffffffffffffff8111828210171562000ebc5762000ebc62000e7f565b60405290565b600067ffffffffffffffff8084111562000ee05762000ee062000e7f565b604051601f8501601f19908116603f0116810190828211818310171562000f0b5762000f0b62000e7f565b8160405280935085815286868601111562000f2557600080fd5b858560208301376000602087830101525050509392505050565b6000806040838503121562000f5357600080fd5b823562000f608162000e49565b9150602083013567ffffffffffffffff81111562000f7d57600080fd5b8301601f8101851362000f8f57600080fd5b62000fa08582356020840162000ec2565b9150509250929050565b60006020828403121562000fbd57600080fd5b5035919050565b80356001600160801b03811681146200086557600080fd5b600082601f83011262000fee57600080fd5b62000deb8383356020850162000ec2565b8035620008658162000e49565b803561ffff811681146200086557600080fd5b80356001600160601b03811681146200086557600080fd5b803563ffffffff811681146200086557600080fd5b803560ff811681146200086557600080fd5b6000602082840312156200107157600080fd5b813567ffffffffffffffff808211156200108a57600080fd5b908301906101e08286031215620010a057600080fd5b620010aa62000e95565b620010b58362000fc4565b8152602083013582811115620010ca57600080fd5b620010d88782860162000fdc565b602083015250604083013582811115620010f157600080fd5b620010ff8782860162000fdc565b6040830152506060830135828111156200111857600080fd5b620011268782860162000fdc565b6060830152506200113a6080840162000fff565b60808201526200114d60a084016200100c565b60a08201526200116060c084016200101f565b60c08201526200117360e0840162001037565b60e082015261010091506200118a8284016200101f565b828201526101209150620011a082840162001037565b828201526101409150620011b682840162001037565b828201526101609150620011cc82840162001037565b828201526101809150620011e282840162001037565b828201526101a09150620011f882840162001037565b828201526101c091506200120e8284016200104c565b91810191909152949350505050565b6020808252602c908201527f46756e6374696f6e206d7573742062652063616c6c6564207468726f7567682060408201526b19195b1959d85d1958d85b1b60a21b606082015260800190565b6020808252602c908201527f46756e6374696f6e206d7573742062652063616c6c6564207468726f7567682060408201526b6163746976652070726f787960a01b606082015260800190565b60005b83811015620012d2578181015183820152602001620012b8565b50506000910152565b60008151808452620012f5816020860160208601620012b5565b601f01601f19169290920160200192915050565b80516001600160801b0316825260006101e060208301518160208601526200133482860182620012db565b91505060408301518482036040860152620013508282620012db565b915050606083015184820360608601526200136c8282620012db565b91505060808301516200138a60808601826001600160a01b03169052565b5060a0830151620013a160a086018261ffff169052565b5060c0830151620013bd60c08601826001600160601b03169052565b5060e0830151620013d660e086018263ffffffff169052565b50610100838101516001600160601b0316908501526101208084015163ffffffff908116918601919091526101408085015182169086015261016080850151821690860152610180808501518216908601526101a080850151909116908501526101c09283015160ff1692909301919091525090565b60018060a01b038416815282602082015260606040820152600062000dc5606083018462001309565b6001600160a01b03831681526040602082018190526000906200149b90830184620012db565b949350505050565b60208152600062000deb602083018462001309565b600060208284031215620014cb57600080fd5b5051919050565b6020808252602b908201527f496e697469616c697a61626c653a20636f6e7472616374206973206e6f74206960408201526a6e697469616c697a696e6760a81b606082015260800190565b6000825162001531818460208701620012b5565b9190910192915050565b60208152600062000deb6020830184620012db56fe60806040523480156200001157600080fd5b506200001c62000022565b620000e4565b600054610100900460ff16156200008f5760405162461bcd60e51b815260206004820152602760248201527f496e697469616c697a61626c653a20636f6e747261637420697320696e697469604482015266616c697a696e6760c81b606482015260840160405180910390fd5b60005460ff9081161015620000e2576000805460ff191660ff9081179091556040519081527f7f26b83ff96e1f2b6a682f133852f6798a09c465da95921460cefb38474024989060200160405180910390a15b565b61361380620000f46000396000f3fe6080604052600436106101f95760003560e01c80638139b4e91161010d578063b5f74525116100a0578063d5abeb011161006f578063d5abeb01146105a8578063e086e5ec146105cb578063e8723754146105d3578063e985e9c5146105f3578063f2fde38b1461061357600080fd5b8063b5f7452514610526578063b602ae6614610548578063b88d4fde14610568578063c87b56dd1461058857600080fd5b806397248f48116100dc57806397248f48146104de578063a22cb465146104f3578063a340a9ad146104de578063a71bbebe1461051357600080fd5b80638139b4e9146104785780638d12b93e146104985780638da5cb5b146104ab57806395d89b41146104c957600080fd5b80632eb4a7ab116101905780636352211e1161015f5780636352211e146103e357806370a0823114610403578063715018a61461042357806372298b82146104385780637cb647591461045857600080fd5b80632eb4a7ab1461035857806331ffc23d1461037c57806342842e0e146103a357806355f804b3146103c357600080fd5b80630d52865d116101cc5780630d52865d146102af57806318160ddd146102cf57806323b872dd146102f95780632a55205a1461031957600080fd5b806301ffc9a7146101fe57806306fdde0314610233578063081812fc14610255578063095ea7b31461028d575b600080fd5b34801561020a57600080fd5b5061021e610219366004612688565b610633565b60405190151581526020015b60405180910390f35b34801561023f57600080fd5b5061024861065e565b60405161022a91906126f5565b34801561026157600080fd5b50610275610270366004612708565b6106f0565b6040516001600160a01b03909116815260200161022a565b34801561029957600080fd5b506102ad6102a8366004612736565b610717565b005b3480156102bb57600080fd5b506102ad6102ca3660046127b9565b610831565b3480156102db57600080fd5b506102e461095e565b60405163ffffffff909116815260200161022a565b34801561030557600080fd5b506102ad610314366004612810565b610988565b34801561032557600080fd5b50610339610334366004612851565b6109b9565b604080516001600160a01b03909316835260208301919091520161022a565b34801561036457600080fd5b5061036e60d15481565b60405190815260200161022a565b34801561038857600080fd5b50610391600181565b60405160ff909116815260200161022a565b3480156103af57600080fd5b506102ad6103be366004612810565b610a20565b3480156103cf57600080fd5b506102ad6103de3660046128ff565b610a3b565b3480156103ef57600080fd5b506102756103fe366004612708565b610a53565b34801561040f57600080fd5b5061036e61041e366004612948565b610ab3565b34801561042f57600080fd5b506102ad610b39565b34801561044457600080fd5b506102ad610453366004612965565b610b4d565b34801561046457600080fd5b506102ad610473366004612708565b610b71565b34801561048457600080fd5b506102ad610493366004612997565b610c17565b6102ad6104a63660046129f6565b610e0d565b3480156104b757600080fd5b506097546001600160a01b0316610275565b3480156104d557600080fd5b50610248611045565b3480156104ea57600080fd5b50610391600281565b3480156104ff57600080fd5b506102ad61050e366004612a4b565b611054565b6102ad610521366004612965565b61105f565b34801561053257600080fd5b5061053b611192565b60405161022a9190612a89565b34801561055457600080fd5b506102ad610563366004612965565b611498565b34801561057457600080fd5b506102ad610583366004612c05565b6114c6565b34801561059457600080fd5b506102486105a3366004612708565b6114f8565b3480156105b457600080fd5b5060d054640100000000900463ffffffff166102e4565b6102ad61155f565b3480156105df57600080fd5b506102ad6105ee366004612965565b611627565b3480156105ff57600080fd5b5061021e61060e366004612c85565b611654565b34801561061f57600080fd5b506102ad61062e366004612948565b611682565b600063152a902d60e11b6001600160e01b0319831614806106585750610658826116f8565b92915050565b60606065805461066d90612cb3565b80601f016020809104026020016040519081016040528092919081815260200182805461069990612cb3565b80156106e65780601f106106bb576101008083540402835291602001916106e6565b820191906000526020600020905b8154815290600101906020018083116106c957829003601f168201915b5050505050905090565b60006106fb82611748565b506000908152606960205260409020546001600160a01b031690565b600061072282610a53565b9050806001600160a01b0316836001600160a01b0316036107945760405162461bcd60e51b815260206004820152602160248201527f4552433732313a20617070726f76616c20746f2063757272656e74206f776e656044820152603960f91b60648201526084015b60405180910390fd5b336001600160a01b03821614806107b057506107b08133611654565b6108225760405162461bcd60e51b815260206004820152603d60248201527f4552433732313a20617070726f76652063616c6c6572206973206e6f7420746f60448201527f6b656e206f776e6572206f7220617070726f76656420666f7220616c6c000000606482015260840161078b565b61082c83836117a7565b505050565b610839611815565b8161087e5760405162461bcd60e51b815260206004820152601560248201527404e6f206164647265737320746f2061697264726f7605c1b604482015260640161078b565b60d35463ffffffff9081169061089690831684612d03565b11156108b45760405162461bcd60e51b815260040161078b90612d1a565b8160005b818114610900576108f78585838181106108d4576108d4612d64565b90506020020160208101906108e99190612948565b60008563ffffffff1661186f565b506001016108b8565b505060ca5460c9546001600160801b0391821691167ff56c43aa7e27280be77b7537035c7721be59a6bbaf1ab9340c7ffc7f2b4617cc85858561094161095e565b6040516109519493929190612d7a565b60405180910390a3505050565b60d35460d0546000916109839163ffffffff9182169164010000000090910416612de0565b905090565b6109923382611b8a565b6109ae5760405162461bcd60e51b815260040161078b90612e04565b61082c838383611be9565b60ce5460009081906001600160a01b03166109e357505060ce546001600160a01b03166000610a19565b60ce546001600160a01b0381169061271090610a0a90600160a01b900461ffff1686612d03565b610a149190612e67565b915091505b9250929050565b61082c838383604051806020016040528060008152506114c6565b610a43611815565b60cd610a4f8282612ec9565b5050565b6000818152606760205260408120546001600160a01b0316806106585760405162461bcd60e51b8152602060048201526018602482015277115490cdcc8c4e881a5b9d985b1a59081d1bdad95b88125160421b604482015260640161078b565b60006001600160a01b038216610b1d5760405162461bcd60e51b815260206004820152602960248201527f4552433732313a2061646472657373207a65726f206973206e6f7420612076616044820152683634b21037bbb732b960b91b606482015260840161078b565b506001600160a01b031660009081526068602052604090205490565b610b41611815565b610b4b6000611d5a565b565b610b55611815565b60d0805463ffffffff191663ffffffff92909216919091179055565b610b79611815565b80610bc65760405162461bcd60e51b815260206004820152601a60248201527f4d65726b6c6520726f6f74206861736820697320656d7074792e000000000000604482015260640161078b565b60d181905560ca5460c9546040518381526001600160801b0392831692909116907fe11164edff6879bbb46b40e2d9dfd870601bac418e3d58dd7e31eb2d18c32f4c9060200160405180910390a350565b600054610100900460ff1615808015610c375750600054600160ff909116105b80610c515750303b158015610c51575060005460ff166001145b610cb45760405162461bcd60e51b815260206004820152602e60248201527f496e697469616c697a61626c653a20636f6e747261637420697320616c72656160448201526d191e481a5b9a5d1a585b1a5e995960921b606482015260840161078b565b6000805460ff191660011790558015610cd7576000805461ff0019166101001790555b610d63610ce76020840184612f89565b8080601f016020809104026020016040519081016040528093929190818152602001838380828437600092019190915250610d29925050506040850185612f89565b8080601f016020809104026020016040519081016040528093929190818152602001838380828437600092019190915250611dac92505050565b610d6b611ddd565b60c980546001600160801b0319166001600160801b038516179055610d9861018083016101608401612965565b60d3805463ffffffff191663ffffffff929092169190911790558160ca610dbf82826130f8565b50508015610e07576000805461ff0019169055604051600181527f7f26b83ff96e1f2b6a682f133852f6798a09c465da95921460cefb38474024989060200160405180910390a15b50505050565b60d054600160801b9004600216600003610e695760405162461bcd60e51b815260206004820152601960248201527f50726573616c65206973206e6f7420617661696c61626c652e00000000000000604482015260640161078b565b60cf5442600160601b90910463ffffffff1610610ec15760405162461bcd60e51b8152602060048201526016602482015275141c995cd85b19481a185cdb89dd081cdd185c9d195960521b604482015260640161078b565b60cf5442600160e01b90910463ffffffff1611610f145760405162461bcd60e51b8152602060048201526011602482015270141c995cd85b19481a185cc8195b991959607a1b604482015260640161078b565b6040516bffffffffffffffffffffffff193360601b166020820152600090603401604051602081830303815290604052805190602001209050610f8e8383808060200260200160405190810160405280939291908181526020018383602002808284376000920191909152505060d1549150849050611e0c565b610fca5760405162461bcd60e51b815260206004820152600d60248201526c34b73b30b634b210383937b7b360991b604482015260640161078b565b60cf54600090610fe690339087906001600160601b031661186f565b60ca5460c95491925033916001600160801b0391821691167f79c0c974208a173f722e6351898de1addce6e8f979cd43900c4776b9463ed6208461102861095e565b60405161103692919061338e565b60405180910390a45050505050565b60606066805461066d90612cb3565b610a4f338383611e22565b60cf5442600160e01b90910463ffffffff16106110b75760405162461bcd60e51b8152602060048201526016602482015275105d58dd1a5bdb881a185cdb89dd081cdd185c9d195960521b604482015260640161078b565b6110bf611ee8565b806110d3575060d0544263ffffffff909116115b6111135760405162461bcd60e51b8152602060048201526011602482015270105d58dd1a5bdb881a185cc8195b991959607a1b604482015260640161078b565b60cf546000906111369033908490600160801b90046001600160601b031661186f565b60ca5460c95491925033916001600160801b0391821691167fe769fc898fc4270eeb917d426bbe99a4b46bd89dd4af40c6e28ecce84784c8a68461117861095e565b60405161118692919061338e565b60405180910390a45050565b604080516101e0810182526000808252606060208301819052928201839052828201929092526080810182905260a0810182905260c0810182905260e08101829052610100810182905261012081018290526101408101829052610160810182905261018081018290526101a081018290526101c0810191909152604080516101e0810190915260ca80546001600160801b0316825260cb805460208401919061123b90612cb3565b80601f016020809104026020016040519081016040528092919081815260200182805461126790612cb3565b80156112b45780601f10611289576101008083540402835291602001916112b4565b820191906000526020600020905b81548152906001019060200180831161129757829003601f168201915b505050505081526020016002820180546112cd90612cb3565b80601f01602080910402602001604051908101604052809291908181526020018280546112f990612cb3565b80156113465780601f1061131b57610100808354040283529160200191611346565b820191906000526020600020905b81548152906001019060200180831161132957829003601f168201915b5050505050815260200160038201805461135f90612cb3565b80601f016020809104026020016040519081016040528092919081815260200182805461138b90612cb3565b80156113d85780601f106113ad576101008083540402835291602001916113d8565b820191906000526020600020905b8154815290600101906020018083116113bb57829003601f168201915b505050918352505060048201546001600160a01b0381166020830152600160a01b900461ffff16604082015260058201546001600160601b038082166060840152600160601b80830463ffffffff9081166080860152600160801b80850490931660a0860152600160e01b909304831660c085015260069094015480831660e085015264010000000081048316610100850152600160401b8104831661012085015293840490911661014083015290910460ff1661016090910152919050565b6114a0611815565b60cf805463ffffffff909216600160601b0263ffffffff60601b19909216919091179055565b6114d03383611b8a565b6114ec5760405162461bcd60e51b815260040161078b90612e04565b610e0784848484611f25565b606061150382611748565b600061150d611f58565b9050600081511161152d5760405180602001604052806000815250611558565b8061153784611f6a565b6040516020016115489291906133e5565b6040516020818303038152906040525b9392505050565b611567611815565b60ce546040516000916001600160a01b03169047908381818185875af1925050503d80600081146115b4576040519150601f19603f3d011682016040523d82523d6000602084013e6115b9565b606091505b50509050806116245760405162461bcd60e51b815260206004820152603160248201527f556e61626c6520746f2073656e642076616c75653a20726563697069656e74206044820152701b585e481a185d99481c995d995c9d1959607a1b606482015260840161078b565b50565b61162f611815565b60cf805463ffffffff909216600160e01b026001600160e01b03909216919091179055565b6001600160a01b039182166000908152606a6020908152604080832093909416825291909152205460ff1690565b61168a611815565b6001600160a01b0381166116ef5760405162461bcd60e51b815260206004820152602660248201527f4f776e61626c653a206e6577206f776e657220697320746865207a65726f206160448201526564647265737360d01b606482015260840161078b565b61162481611d5a565b60006001600160e01b031982166380ac58cd60e01b148061172957506001600160e01b03198216635b5e139f60e01b145b8061065857506301ffc9a760e01b6001600160e01b0319831614610658565b6000818152606760205260409020546001600160a01b03166116245760405162461bcd60e51b8152602060048201526018602482015277115490cdcc8c4e881a5b9d985b1a59081d1bdad95b88125160421b604482015260640161078b565b600081815260696020526040902080546001600160a01b0319166001600160a01b03841690811790915581906117dc82610a53565b6001600160a01b03167f8c5be1e5ebec7d5bd14f71427d1e84f3dd0314c0f7b2291e5b200ac8c7c3b92560405160405180910390a45050565b6097546001600160a01b03163314610b4b5760405162461bcd60e51b815260206004820181905260248201527f4f776e61626c653a2063616c6c6572206973206e6f7420746865206f776e6572604482015260640161078b565b60606001600160a01b0384166118c75760405162461bcd60e51b815260206004820181905260248201527f4552433732313a206d696e7420746f20746865207a65726f2061646472657373604482015260640161078b565b60008363ffffffff161161192d5760405162461bcd60e51b815260206004820152602760248201527f4552433732313a206e65656420746f206d696e74206174206c65617374206f6e60448201526632903a37b5b2b760c91b606482015260840161078b565b60d05463ffffffff600160601b909104811690841661194b33610ab3565b6119559190613414565b11156119b85760405162461bcd60e51b815260206004820152602c60248201527f4578636565642074686520726172656d656e7420686f6c64696e67206c696d6960448201526b1d081c195c881dd85b1b195d60a21b606482015260840161078b565b6119c863ffffffff841683613427565b6001600160601b0316341015611a325760405162461bcd60e51b815260206004820152602960248201527f4d7573742073656e6420656e6f75676820746f20707572636861736520746865604482015268081c985c995b595b9d60ba1b606482015260840161078b565b60d35463ffffffff9081169084161115611a5e5760405162461bcd60e51b815260040161078b90612d1a565b60008363ffffffff1667ffffffffffffffff811115611a7f57611a7f612873565b604051908082528060200260200182016040528015611aa8578160200160208202803683370190505b5060d35490915063ffffffff1660005b8563ffffffff168163ffffffff161015611b675760d054600090600160801b900460011615611af257611aeb8884611ffd565b9050611b19565b60d05460d354611b169163ffffffff64010000000090910481168690039116612094565b90505b611b29888263ffffffff1661218f565b80848363ffffffff1681518110611b4257611b42612d64565b63ffffffff909216602092830291909101909101525060001990910190600101611ab8565b5060d3805463ffffffff191663ffffffff92909216919091179055949350505050565b600080611b9683610a53565b9050806001600160a01b0316846001600160a01b03161480611bbd5750611bbd8185611654565b80611be15750836001600160a01b0316611bd6846106f0565b6001600160a01b0316145b949350505050565b826001600160a01b0316611bfc82610a53565b6001600160a01b031614611c225760405162461bcd60e51b815260040161078b90613452565b6001600160a01b038216611c845760405162461bcd60e51b8152602060048201526024808201527f4552433732313a207472616e7366657220746f20746865207a65726f206164646044820152637265737360e01b606482015260840161078b565b611c918383836001612328565b826001600160a01b0316611ca482610a53565b6001600160a01b031614611cca5760405162461bcd60e51b815260040161078b90613452565b600081815260696020908152604080832080546001600160a01b03199081169091556001600160a01b0387811680865260688552838620805460001901905590871680865283862080546001019055868652606790945282852080549092168417909155905184937fddf252ad1be2c89b69c2b068fc378daa952ba7f163c4a11628f55a4df523b3ef91a4505050565b609780546001600160a01b038381166001600160a01b0319831681179093556040519116919082907f8be0079c531659141344cd1fd0a4f28419497f9722a3daafe3b4186f6b6457e090600090a35050565b600054610100900460ff16611dd35760405162461bcd60e51b815260040161078b90613497565b610a4f82826123b0565b600054610100900460ff16611e045760405162461bcd60e51b815260040161078b90613497565b610b4b6123f0565b600082611e198584612420565b14949350505050565b816001600160a01b0316836001600160a01b031603611e835760405162461bcd60e51b815260206004820152601960248201527f4552433732313a20617070726f766520746f2063616c6c657200000000000000604482015260640161078b565b6001600160a01b038381166000818152606a6020908152604080832094871680845294825291829020805460ff191686151590811790915591519182527f17307eab39ab6107e8899845ad3d59bd9653f200f220920489ca2b5937696c319101610951565b60d054600090600160801b9004600216158015906109835750611f0961095e565b60d05463ffffffff918216600160401b90910490911611905090565b611f30848484611be9565b611f3c8484848461246d565b610e075760405162461bcd60e51b815260040161078b906134e2565b606060ca600301805461066d90612cb3565b60606000611f778361256e565b600101905060008167ffffffffffffffff811115611f9757611f97612873565b6040519080825280601f01601f191660200182016040528015611fc1576020820181803683370190505b5090508181016020015b600019016f181899199a1a9b1b9c1cb0b131b232b360811b600a86061a8153600a8504945084611fcb57509392505050565b600080833a434244612010600184613534565b604080516001600160a01b0390971660208801528601949094526060850192909252608084015260a08301524060c08201523060e082015263ffffffff84166101008201526101200160408051601f1981840301815291905280516020909101209050600061207f8483613547565b905061208b8185612094565b95945050505050565b63ffffffff808316600090815260d26020526040812054909116818181036120bd5750836120c0565b50805b60006120cd600186612de0565b63ffffffff808216600081815260d260205260409020549293509181169190881614612157578063ffffffff1660000361212e5763ffffffff878116600090815260d260205260409020805463ffffffff1916918416919091179055612157565b63ffffffff878116600090815260d260205260409020805463ffffffff19169183169190911790555b63ffffffff8116156121845763ffffffff8216600090815260d260205260409020805463ffffffff191690555b509095945050505050565b6001600160a01b0382166121e55760405162461bcd60e51b815260206004820181905260248201527f4552433732313a206d696e7420746f20746865207a65726f2061646472657373604482015260640161078b565b6000818152606760205260409020546001600160a01b03161561224a5760405162461bcd60e51b815260206004820152601c60248201527f4552433732313a20746f6b656e20616c7265616479206d696e74656400000000604482015260640161078b565b612258600083836001612328565b6000818152606760205260409020546001600160a01b0316156122bd5760405162461bcd60e51b815260206004820152601c60248201527f4552433732313a20746f6b656e20616c7265616479206d696e74656400000000604482015260640161078b565b6001600160a01b038216600081815260686020908152604080832080546001019055848352606790915280822080546001600160a01b0319168417905551839291907fddf252ad1be2c89b69c2b068fc378daa952ba7f163c4a11628f55a4df523b3ef908290a45050565b6001811115610e07576001600160a01b0384161561236e576001600160a01b03841660009081526068602052604081208054839290612368908490613534565b90915550505b6001600160a01b03831615610e07576001600160a01b038316600090815260686020526040812080548392906123a5908490613414565b909155505050505050565b600054610100900460ff166123d75760405162461bcd60e51b815260040161078b90613497565b60656123e38382612ec9565b50606661082c8282612ec9565b600054610100900460ff166124175760405162461bcd60e51b815260040161078b90613497565b610b4b33611d5a565b600081815b8451811015612465576124518286838151811061244457612444612d64565b6020026020010151612646565b91508061245d8161356a565b915050612425565b509392505050565b60006001600160a01b0384163b1561256357604051630a85bd0160e11b81526001600160a01b0385169063150b7a02906124b1903390899088908890600401613583565b6020604051808303816000875af19250505080156124ec575060408051601f3d908101601f191682019092526124e9918101906135c0565b60015b612549573d80801561251a576040519150601f19603f3d011682016040523d82523d6000602084013e61251f565b606091505b5080516000036125415760405162461bcd60e51b815260040161078b906134e2565b805181602001fd5b6001600160e01b031916630a85bd0160e11b149050611be1565b506001949350505050565b60008072184f03e93ff9f4daa797ed6e38ed64bf6a1f0160401b83106125ad5772184f03e93ff9f4daa797ed6e38ed64bf6a1f0160401b830492506040015b6d04ee2d6d415b85acef810000000083106125d9576d04ee2d6d415b85acef8100000000830492506020015b662386f26fc1000083106125f757662386f26fc10000830492506010015b6305f5e100831061260f576305f5e100830492506008015b612710831061262357612710830492506004015b60648310612635576064830492506002015b600a83106106585760010192915050565b6000818310612662576000828152602084905260409020611558565b5060009182526020526040902090565b6001600160e01b03198116811461162457600080fd5b60006020828403121561269a57600080fd5b813561155881612672565b60005b838110156126c05781810151838201526020016126a8565b50506000910152565b600081518084526126e18160208601602086016126a5565b601f01601f19169290920160200192915050565b60208152600061155860208301846126c9565b60006020828403121561271a57600080fd5b5035919050565b6001600160a01b038116811461162457600080fd5b6000806040838503121561274957600080fd5b823561275481612721565b946020939093013593505050565b60008083601f84011261277457600080fd5b50813567ffffffffffffffff81111561278c57600080fd5b6020830191508360208260051b8501011115610a1957600080fd5b63ffffffff8116811461162457600080fd5b6000806000604084860312156127ce57600080fd5b833567ffffffffffffffff8111156127e557600080fd5b6127f186828701612762565b9094509250506020840135612805816127a7565b809150509250925092565b60008060006060848603121561282557600080fd5b833561283081612721565b9250602084013561284081612721565b929592945050506040919091013590565b6000806040838503121561286457600080fd5b50508035926020909101359150565b634e487b7160e01b600052604160045260246000fd5b600067ffffffffffffffff808411156128a4576128a4612873565b604051601f8501601f19908116603f011681019082821181831017156128cc576128cc612873565b816040528093508581528686860111156128e557600080fd5b858560208301376000602087830101525050509392505050565b60006020828403121561291157600080fd5b813567ffffffffffffffff81111561292857600080fd5b8201601f8101841361293957600080fd5b611be184823560208401612889565b60006020828403121561295a57600080fd5b813561155881612721565b60006020828403121561297757600080fd5b8135611558816127a7565b6001600160801b038116811461162457600080fd5b6000806000606084860312156129ac57600080fd5b83356129b781612721565b925060208401356129c781612982565b9150604084013567ffffffffffffffff8111156129e357600080fd5b84016101e0818703121561280557600080fd5b600080600060408486031215612a0b57600080fd5b8335612a16816127a7565b9250602084013567ffffffffffffffff811115612a3257600080fd5b612a3e86828701612762565b9497909650939450505050565b60008060408385031215612a5e57600080fd5b8235612a6981612721565b915060208301358015158114612a7e57600080fd5b809150509250929050565b60208152612aa36020820183516001600160801b03169052565b600060208301516101e0806040850152612ac16102008501836126c9565b91506040850151601f1980868503016060870152612adf84836126c9565b9350606087015191508086850301608087015250612afd83826126c9565b9250506080850151612b1a60a08601826001600160a01b03169052565b5060a085015161ffff811660c08601525060c08501516001600160601b03811660e08601525060e0850151610100612b598187018363ffffffff169052565b8601519050610120612b75868201836001600160601b03169052565b8601519050610140612b8e8682018363ffffffff169052565b8601519050610160612ba78682018363ffffffff169052565b8601519050610180612bc08682018363ffffffff169052565b86015190506101a0612bd98682018363ffffffff169052565b86015190506101c0612bf28682018363ffffffff169052565b9095015160ff1693019290925250919050565b60008060008060808587031215612c1b57600080fd5b8435612c2681612721565b93506020850135612c3681612721565b925060408501359150606085013567ffffffffffffffff811115612c5957600080fd5b8501601f81018713612c6a57600080fd5b612c7987823560208401612889565b91505092959194509250565b60008060408385031215612c9857600080fd5b8235612ca381612721565b91506020830135612a7e81612721565b600181811c90821680612cc757607f821691505b602082108103612ce757634e487b7160e01b600052602260045260246000fd5b50919050565b634e487b7160e01b600052601160045260246000fd5b808202811582820484141761065857610658612ced565b6020808252602a908201527f4552433732313a206d696e74696e67206d6f726520746f6b656e73207468616e60408201526920617661696c61626c6560b01b606082015260800190565b634e487b7160e01b600052603260045260246000fd5b6060808252810184905260008560808301825b87811015612dbd578235612da081612721565b6001600160a01b0316825260209283019290910190600101612d8d565b5063ffffffff958616602085015293909416604090920191909152509392505050565b63ffffffff828116828216039080821115612dfd57612dfd612ced565b5092915050565b6020808252602d908201527f4552433732313a2063616c6c6572206973206e6f7420746f6b656e206f776e6560408201526c1c881bdc88185c1c1c9bdd9959609a1b606082015260800190565b634e487b7160e01b600052601260045260246000fd5b600082612e7657612e76612e51565b500490565b601f82111561082c57600081815260208120601f850160051c81016020861015612ea25750805b601f850160051c820191505b81811015612ec157828155600101612eae565b505050505050565b815167ffffffffffffffff811115612ee357612ee3612873565b612ef781612ef18454612cb3565b84612e7b565b602080601f831160018114612f2c5760008415612f145750858301515b600019600386901b1c1916600185901b178555612ec1565b600085815260208120601f198616915b82811015612f5b57888601518255948401946001909101908401612f3c565b5085821015612f795787850151600019600388901b60f8161c191681555b5050505050600190811b01905550565b6000808335601e19843603018112612fa057600080fd5b83018035915067ffffffffffffffff821115612fbb57600080fd5b602001915036819003821315610a1957600080fd5b6000813561065881612982565b67ffffffffffffffff831115612ff557612ff5612873565b613009836130038354612cb3565b83612e7b565b6000601f84116001811461303d57600085156130255750838201355b600019600387901b1c1916600186901b178355613097565b600083815260209020601f19861690835b8281101561306e578685013582556020948501946001909201910161304e565b508682101561308b5760001960f88860031b161c19848701351681555b505060018560011b0183555b5050505050565b6000813561065881612721565b6000813561ffff8116811461065857600080fd5b600081356001600160601b038116811461065857600080fd5b60008135610658816127a7565b6000813560ff8116811461065857600080fd5b61312161310483612fd0565b82546001600160801b0319166001600160801b0391909116178255565b61312e6020830183612f89565b61313c818360018601612fdd565b505061314b6040830183612f89565b613159818360028601612fdd565b50506131686060830183612f89565b613176818360038601612fdd565b5050600481016131a861318b6080850161309e565b82546001600160a01b0319166001600160a01b0391909116178255565b6131d76131b760a085016130ab565b82805461ffff60a01b191660a09290921b61ffff60a01b16919091179055565b506005810161320d6131eb60c085016130bf565b82546bffffffffffffffffffffffff19166001600160601b0391909116178255565b61324061321c60e085016130d8565b82805463ffffffff60601b191660609290921b63ffffffff60601b16919091179055565b61328461325061010085016130bf565b8280546bffffffffffffffffffffffff60801b191660809290921b6bffffffffffffffffffffffff60801b16919091179055565b6132b861329461012085016130d8565b8280546001600160e01b031660e09290921b6001600160e01b031916919091179055565b50600681016132e46132cd61014085016130d8565b825463ffffffff191663ffffffff91909116178255565b6133166132f461016085016130d8565b825467ffffffff00000000191660209190911b67ffffffff0000000016178255565b61335061332661018085016130d8565b82546bffffffff0000000000000000191660409190911b6bffffffff000000000000000016178255565b61336061321c6101a085016130d8565b61082c6133706101c085016130e5565b82805460ff60801b191660809290921b60ff60801b16919091179055565b604080825283519082018190526000906020906060840190828701845b828110156133cd57815163ffffffff16845292840192908401906001016133ab565b50505063ffffffff9490941692019190915250919050565b600083516133f78184602088016126a5565b83519083019061340b8183602088016126a5565b01949350505050565b8082018082111561065857610658612ced565b6001600160601b0381811683821602808216919082811461344a5761344a612ced565b505092915050565b60208082526025908201527f4552433732313a207472616e736665722066726f6d20696e636f72726563742060408201526437bbb732b960d91b606082015260800190565b6020808252602b908201527f496e697469616c697a61626c653a20636f6e7472616374206973206e6f74206960408201526a6e697469616c697a696e6760a81b606082015260800190565b60208082526032908201527f4552433732313a207472616e7366657220746f206e6f6e20455243373231526560408201527131b2b4bb32b91034b6b83632b6b2b73a32b960711b606082015260800190565b8181038181111561065857610658612ced565b600063ffffffff8084168061355e5761355e612e51565b92169190910692915050565b60006001820161357c5761357c612ced565b5060010190565b6001600160a01b03858116825284166020820152604081018390526080606082018190526000906135b6908301846126c9565b9695505050505050565b6000602082840312156135d257600080fd5b81516115588161267256fea26469706673582212203adbe9952f1ab3c1a0025c9977ff09f8cbf4a12b6d6eca6b282aa7367323887064736f6c63430008110033608060405234801561001057600080fd5b506040516104e43803806104e483398101604081905261002f91610151565b61003833610047565b61004181610097565b50610181565b600080546001600160a01b038381166001600160a01b0319831681178455604051919092169283917f8be0079c531659141344cd1fd0a4f28419497f9722a3daafe3b4186f6b6457e09190a35050565b6100aa8161014260201b6101a01760201c565b6101205760405162461bcd60e51b815260206004820152603360248201527f5570677261646561626c65426561636f6e3a20696d706c656d656e746174696f60448201527f6e206973206e6f74206120636f6e747261637400000000000000000000000000606482015260840160405180910390fd5b600180546001600160a01b0319166001600160a01b0392909216919091179055565b6001600160a01b03163b151590565b60006020828403121561016357600080fd5b81516001600160a01b038116811461017a57600080fd5b9392505050565b610354806101906000396000f3fe608060405234801561001057600080fd5b50600436106100575760003560e01c80633659cfe61461005c5780635c60da1b14610071578063715018a61461009a5780638da5cb5b146100a2578063f2fde38b146100b3575b600080fd5b61006f61006a3660046102ee565b6100c6565b005b6001546001600160a01b03165b6040516001600160a01b03909116815260200160405180910390f35b61006f61010e565b6000546001600160a01b031661007e565b61006f6100c13660046102ee565b610122565b6100ce6101af565b6100d781610209565b6040516001600160a01b038216907fbc7cd75a20ee27fd9adebab32041f755214dbc6bffa90cc0225b39da2e5c2d3b90600090a250565b6101166101af565b610120600061029e565b565b61012a6101af565b6001600160a01b0381166101945760405162461bcd60e51b815260206004820152602660248201527f4f776e61626c653a206e6577206f776e657220697320746865207a65726f206160448201526564647265737360d01b60648201526084015b60405180910390fd5b61019d8161029e565b50565b6001600160a01b03163b151590565b6000546001600160a01b031633146101205760405162461bcd60e51b815260206004820181905260248201527f4f776e61626c653a2063616c6c6572206973206e6f7420746865206f776e6572604482015260640161018b565b6001600160a01b0381163b61027c5760405162461bcd60e51b815260206004820152603360248201527f5570677261646561626c65426561636f6e3a20696d706c656d656e746174696f6044820152721b881a5cc81b9bdd08184818dbdb9d1c9858dd606a1b606482015260840161018b565b600180546001600160a01b0319166001600160a01b0392909216919091179055565b600080546001600160a01b038381166001600160a01b0319831681178455604051919092169283917f8be0079c531659141344cd1fd0a4f28419497f9722a3daafe3b4186f6b6457e09190a35050565b60006020828403121561030057600080fd5b81356001600160a01b038116811461031757600080fd5b939250505056fea264697066735822122046de0e2736711d896422b3c51492e357495cbb76e5fdccdc78cc16cf74f410c064736f6c6343000811003360806040526040516109003803806109008339810160408190526100229161045b565b61002e82826000610035565b5050610585565b61003e83610100565b6040516001600160a01b038416907f1cf3b03a6cf19fa2baba4df148e9dcabedea7f8a5c07840e207e5c089be95d3e90600090a260008251118061007f5750805b156100fb576100f9836001600160a01b0316635c60da1b6040518163ffffffff1660e01b8152600401602060405180830381865afa1580156100c5573d6000803e3d6000fd5b505050506040513d601f19601f820116820180604052508101906100e9919061051b565b836102a360201b6100291760201c565b505b505050565b610113816102cf60201b6100551760201c565b6101725760405162461bcd60e51b815260206004820152602560248201527f455243313936373a206e657720626561636f6e206973206e6f74206120636f6e6044820152641d1c9858dd60da1b60648201526084015b60405180910390fd5b6101e6816001600160a01b0316635c60da1b6040518163ffffffff1660e01b8152600401602060405180830381865afa1580156101b3573d6000803e3d6000fd5b505050506040513d601f19601f820116820180604052508101906101d7919061051b565b6102cf60201b6100551760201c565b61024b5760405162461bcd60e51b815260206004820152603060248201527f455243313936373a20626561636f6e20696d706c656d656e746174696f6e206960448201526f1cc81b9bdd08184818dbdb9d1c9858dd60821b6064820152608401610169565b806102827fa3f0ad74e5423aebfd80d3ef4346578335a9a72aeaee59ff6cb3582b35133d5060001b6102de60201b6100641760201c565b80546001600160a01b0319166001600160a01b039290921691909117905550565b60606102c883836040518060600160405280602781526020016108d9602791396102e1565b9392505050565b6001600160a01b03163b151590565b90565b6060600080856001600160a01b0316856040516102fe9190610536565b600060405180830381855af49150503d8060008114610339576040519150601f19603f3d011682016040523d82523d6000602084013e61033e565b606091505b5090925090506103508683838761035a565b9695505050505050565b606083156103c95782516000036103c2576001600160a01b0385163b6103c25760405162461bcd60e51b815260206004820152601d60248201527f416464726573733a2063616c6c20746f206e6f6e2d636f6e74726163740000006044820152606401610169565b50816103d3565b6103d383836103db565b949350505050565b8151156103eb5781518083602001fd5b8060405162461bcd60e51b81526004016101699190610552565b80516001600160a01b038116811461041c57600080fd5b919050565b634e487b7160e01b600052604160045260246000fd5b60005b8381101561045257818101518382015260200161043a565b50506000910152565b6000806040838503121561046e57600080fd5b61047783610405565b60208401519092506001600160401b038082111561049457600080fd5b818501915085601f8301126104a857600080fd5b8151818111156104ba576104ba610421565b604051601f8201601f19908116603f011681019083821181831017156104e2576104e2610421565b816040528281528860208487010111156104fb57600080fd5b61050c836020830160208801610437565b80955050505050509250929050565b60006020828403121561052d57600080fd5b6102c882610405565b60008251610548818460208701610437565b9190910192915050565b6020815260008251806020840152610571816040850160208701610437565b601f01601f19169190910160400192915050565b610345806105946000396000f3fe60806040523661001357610011610017565b005b6100115b610027610022610067565b610100565b565b606061004e83836040518060600160405280602781526020016102e960279139610124565b9392505050565b6001600160a01b03163b151590565b90565b600061009a7fa3f0ad74e5423aebfd80d3ef4346578335a9a72aeaee59ff6cb3582b35133d50546001600160a01b031690565b6001600160a01b0316635c60da1b6040518163ffffffff1660e01b8152600401602060405180830381865afa1580156100d7573d6000803e3d6000fd5b505050506040513d601f19601f820116820180604052508101906100fb919061024c565b905090565b3660008037600080366000845af43d6000803e80801561011f573d6000f35b3d6000fd5b6060600080856001600160a01b0316856040516101419190610299565b600060405180830381855af49150503d806000811461017c576040519150601f19603f3d011682016040523d82523d6000602084013e610181565b606091505b50915091506101928683838761019c565b9695505050505050565b60608315610210578251600003610209576001600160a01b0385163b6102095760405162461bcd60e51b815260206004820152601d60248201527f416464726573733a2063616c6c20746f206e6f6e2d636f6e747261637400000060448201526064015b60405180910390fd5b508161021a565b61021a8383610222565b949350505050565b8151156102325781518083602001fd5b8060405162461bcd60e51b815260040161020091906102b5565b60006020828403121561025e57600080fd5b81516001600160a01b038116811461004e57600080fd5b60005b83811015610290578181015183820152602001610278565b50506000910152565b600082516102ab818460208701610275565b9190910192915050565b60208152600082518060208401526102d4816040850160208701610275565b601f01601f1916919091016040019291505056fe416464726573733a206c6f772d6c6576656c2064656c65676174652063616c6c206661696c6564a264697066735822122022a6bf5ebbb7518c40e703958b5c8e4d70ca6715c1e1ccf9e9591bfc86e066d164736f6c63430008110033416464726573733a206c6f772d6c6576656c2064656c65676174652063616c6c206661696c6564360894a13ba1a3210667c828492db98dca3e2076cc3735a920a3ca505d382bbc416464726573733a206c6f772d6c6576656c2064656c65676174652063616c6c206661696c6564a2646970667358221220fb476470f21bae4771ec18936226b4bdfc8c7fece0d2ef237ae1375841eaed2664736f6c63430008110033",
  "devdoc": {
    "kind": "dev",
    "methods": {
      "constructor": {
        "custom:oz-upgrades-unsafe-allow": "constructor"
      },
      "owner()": {
        "details": "Returns the address of the current owner."
      },
      "proxiableUUID()": {
        "details": "Implementation of the ERC1822 {proxiableUUID} function. This returns the storage slot used by the implementation. It is used to validate the implementation's compatibility when performing an upgrade. IMPORTANT: A proxy pointing at a proxiable contract should not be considered proxiable itself, because this risks bricking a proxy that upgrades to it, by delegating to itself until out of gas. Thus it is critical that this function revert if invoked through a proxy. This is guaranteed by the `notDelegated` modifier."
      },
      "renounceOwnership()": {
        "details": "Leaves the contract without owner. It will not be possible to call `onlyOwner` functions anymore. Can only be called by the current owner. NOTE: Renouncing ownership will leave the contract without an owner, thereby removing any functionality that is only available to the owner."
      },
      "transferOwnership(address)": {
        "details": "Transfers ownership of the contract to a new account (`newOwner`). Can only be called by the current owner."
      },
      "upgradeTo(address)": {
        "details": "Upgrade the implementation of the proxy to `newImplementation`. Calls {_authorizeUpgrade}. Emits an {Upgraded} event."
      },
      "upgradeToAndCall(address,bytes)": {
        "details": "Upgrade the implementation of the proxy to `newImplementation`, and subsequently execute the function call encoded in `data`. Calls {_authorizeUpgrade}. Emits an {Upgraded} event."
      }
    },
    "version": 1
  },
  "userdoc": {
    "kind": "user",
    "methods": {},
    "version": 1
  },
  "storageLayout": {
    "storage": [
      {
        "astId": 546,
        "contract": "contracts/RarementCreator.sol:RarementCreator",
        "label": "_initialized",
        "offset": 0,
        "slot": "0",
        "type": "t_uint8"
      },
      {
        "astId": 549,
        "contract": "contracts/RarementCreator.sol:RarementCreator",
        "label": "_initializing",
        "offset": 1,
        "slot": "0",
        "type": "t_bool"
      },
      {
        "astId": 528,
        "contract": "contracts/RarementCreator.sol:RarementCreator",
        "label": "__gap",
        "offset": 0,
        "slot": "1",
        "type": "t_array(t_uint256)50_storage"
      },
      {
        "astId": 843,
        "contract": "contracts/RarementCreator.sol:RarementCreator",
        "label": "__gap",
        "offset": 0,
        "slot": "51",
        "type": "t_array(t_uint256)50_storage"
      },
      {
        "astId": 2300,
        "contract": "contracts/RarementCreator.sol:RarementCreator",
        "label": "__gap",
        "offset": 0,
        "slot": "101",
        "type": "t_array(t_uint256)50_storage"
      },
      {
        "astId": 10,
        "contract": "contracts/RarementCreator.sol:RarementCreator",
        "label": "_owner",
        "offset": 0,
        "slot": "151",
        "type": "t_address"
      },
      {
        "astId": 130,
        "contract": "contracts/RarementCreator.sol:RarementCreator",
        "label": "__gap",
        "offset": 0,
        "slot": "152",
        "type": "t_array(t_uint256)49_storage"
      },
      {
        "astId": 5984,
        "contract": "contracts/RarementCreator.sol:RarementCreator",
        "label": "numRarements",
        "offset": 0,
        "slot": "201",
        "type": "t_struct(Counter)2307_storage"
      },
      {
        "astId": 5986,
        "contract": "contracts/RarementCreator.sol:RarementCreator",
        "label": "beaconAddress",
        "offset": 0,
        "slot": "202",
        "type": "t_address"
      },
      {
        "astId": 5989,
        "contract": "contracts/RarementCreator.sol:RarementCreator",
        "label": "rarementContracts",
        "offset": 0,
        "slot": "203",
        "type": "t_array(t_address)dyn_storage"
      }
    ],
    "types": {
      "t_address": {
        "encoding": "inplace",
        "label": "address",
        "numberOfBytes": "20"
      },
      "t_array(t_address)dyn_storage": {
        "base": "t_address",
        "encoding": "dynamic_array",
        "label": "address[]",
        "numberOfBytes": "32"
      },
      "t_array(t_uint256)49_storage": {
        "base": "t_uint256",
        "encoding": "inplace",
        "label": "uint256[49]",
        "numberOfBytes": "1568"
      },
      "t_array(t_uint256)50_storage": {
        "base": "t_uint256",
        "encoding": "inplace",
        "label": "uint256[50]",
        "numberOfBytes": "1600"
      },
      "t_bool": {
        "encoding": "inplace",
        "label": "bool",
        "numberOfBytes": "1"
      },
      "t_struct(Counter)2307_storage": {
        "encoding": "inplace",
        "label": "struct CountersUpgradeable.Counter",
        "members": [
          {
            "astId": 2306,
            "contract": "contracts/RarementCreator.sol:RarementCreator",
            "label": "_value",
            "offset": 0,
            "slot": "0",
            "type": "t_uint256"
          }
        ],
        "numberOfBytes": "32"
      },
      "t_uint256": {
        "encoding": "inplace",
        "label": "uint256",
        "numberOfBytes": "32"
      },
      "t_uint8": {
        "encoding": "inplace",
        "label": "uint8",
        "numberOfBytes": "1"
      }
    }
  }
}